{
  "_format": "hh-sol-artifact-1",
  "contractName": "AmTek",
  "sourceName": "contracts/AmTek.sol",
  "abi": [
    {
      "inputs": [],
      "stateMutability": "nonpayable",
      "type": "constructor"
    },
    {
      "inputs": [
        {
          "internalType": "address",
          "name": "sender",
          "type": "address"
        },
        {
          "internalType": "uint256",
          "name": "tokenId",
          "type": "uint256"
        },
        {
          "internalType": "address",
          "name": "owner",
          "type": "address"
        }
      ],
      "name": "ERC721IncorrectOwner",
      "type": "error"
    },
    {
      "inputs": [
        {
          "internalType": "address",
          "name": "operator",
          "type": "address"
        },
        {
          "internalType": "uint256",
          "name": "tokenId",
          "type": "uint256"
        }
      ],
      "name": "ERC721InsufficientApproval",
      "type": "error"
    },
    {
      "inputs": [
        {
          "internalType": "address",
          "name": "approver",
          "type": "address"
        }
      ],
      "name": "ERC721InvalidApprover",
      "type": "error"
    },
    {
      "inputs": [
        {
          "internalType": "address",
          "name": "operator",
          "type": "address"
        }
      ],
      "name": "ERC721InvalidOperator",
      "type": "error"
    },
    {
      "inputs": [
        {
          "internalType": "address",
          "name": "owner",
          "type": "address"
        }
      ],
      "name": "ERC721InvalidOwner",
      "type": "error"
    },
    {
      "inputs": [
        {
          "internalType": "address",
          "name": "receiver",
          "type": "address"
        }
      ],
      "name": "ERC721InvalidReceiver",
      "type": "error"
    },
    {
      "inputs": [
        {
          "internalType": "address",
          "name": "sender",
          "type": "address"
        }
      ],
      "name": "ERC721InvalidSender",
      "type": "error"
    },
    {
      "inputs": [
        {
          "internalType": "uint256",
          "name": "tokenId",
          "type": "uint256"
        }
      ],
      "name": "ERC721NonexistentToken",
      "type": "error"
    },
    {
      "inputs": [],
      "name": "EnforcedPause",
      "type": "error"
    },
    {
      "inputs": [],
      "name": "ExpectedPause",
      "type": "error"
    },
    {
      "inputs": [
        {
          "internalType": "address",
          "name": "owner",
          "type": "address"
        }
      ],
      "name": "OwnableInvalidOwner",
      "type": "error"
    },
    {
      "inputs": [
        {
          "internalType": "address",
          "name": "account",
          "type": "address"
        }
      ],
      "name": "OwnableUnauthorizedAccount",
      "type": "error"
    },
    {
      "anonymous": false,
      "inputs": [
        {
          "indexed": true,
          "internalType": "address",
          "name": "owner",
          "type": "address"
        },
        {
          "indexed": true,
          "internalType": "address",
          "name": "approved",
          "type": "address"
        },
        {
          "indexed": true,
          "internalType": "uint256",
          "name": "tokenId",
          "type": "uint256"
        }
      ],
      "name": "Approval",
      "type": "event"
    },
    {
      "anonymous": false,
      "inputs": [
        {
          "indexed": true,
          "internalType": "address",
          "name": "owner",
          "type": "address"
        },
        {
          "indexed": true,
          "internalType": "address",
          "name": "operator",
          "type": "address"
        },
        {
          "indexed": false,
          "internalType": "bool",
          "name": "approved",
          "type": "bool"
        }
      ],
      "name": "ApprovalForAll",
      "type": "event"
    },
    {
      "anonymous": false,
      "inputs": [
        {
          "indexed": true,
          "internalType": "address",
          "name": "previousOwner",
          "type": "address"
        },
        {
          "indexed": true,
          "internalType": "address",
          "name": "newOwner",
          "type": "address"
        }
      ],
      "name": "OwnershipTransferred",
      "type": "event"
    },
    {
      "anonymous": false,
      "inputs": [
        {
          "indexed": false,
          "internalType": "address",
          "name": "account",
          "type": "address"
        }
      ],
      "name": "Paused",
      "type": "event"
    },
    {
      "anonymous": false,
      "inputs": [
        {
          "indexed": true,
          "internalType": "address",
          "name": "from",
          "type": "address"
        },
        {
          "indexed": true,
          "internalType": "address",
          "name": "to",
          "type": "address"
        },
        {
          "indexed": true,
          "internalType": "uint256",
          "name": "tokenId",
          "type": "uint256"
        }
      ],
      "name": "Transfer",
      "type": "event"
    },
    {
      "anonymous": false,
      "inputs": [
        {
          "indexed": false,
          "internalType": "address",
          "name": "account",
          "type": "address"
        }
      ],
      "name": "Unpaused",
      "type": "event"
    },
    {
      "inputs": [
        {
          "internalType": "address",
          "name": "_peer",
          "type": "address"
        }
      ],
      "name": "addToSpecial",
      "outputs": [],
      "stateMutability": "nonpayable",
      "type": "function"
    },
    {
      "inputs": [
        {
          "internalType": "address",
          "name": "to",
          "type": "address"
        },
        {
          "internalType": "uint256",
          "name": "tokenId",
          "type": "uint256"
        }
      ],
      "name": "approve",
      "outputs": [],
      "stateMutability": "nonpayable",
      "type": "function"
    },
    {
      "inputs": [
        {
          "internalType": "address",
          "name": "owner",
          "type": "address"
        }
      ],
      "name": "balanceOf",
      "outputs": [
        {
          "internalType": "uint256",
          "name": "",
          "type": "uint256"
        }
      ],
      "stateMutability": "view",
      "type": "function"
    },
    {
      "inputs": [
        {
          "internalType": "uint256",
          "name": "tokenId",
          "type": "uint256"
        }
      ],
      "name": "burn",
      "outputs": [],
      "stateMutability": "nonpayable",
      "type": "function"
    },
    {
      "inputs": [
        {
          "internalType": "uint256",
          "name": "_price",
          "type": "uint256"
        }
      ],
      "name": "changePrice",
      "outputs": [],
      "stateMutability": "nonpayable",
      "type": "function"
    },
    {
      "inputs": [],
      "name": "endPreSale",
      "outputs": [],
      "stateMutability": "nonpayable",
      "type": "function"
    },
    {
      "inputs": [
        {
          "internalType": "uint256",
          "name": "tokenId",
          "type": "uint256"
        }
      ],
      "name": "getApproved",
      "outputs": [
        {
          "internalType": "address",
          "name": "",
          "type": "address"
        }
      ],
      "stateMutability": "view",
      "type": "function"
    },
    {
      "inputs": [
        {
          "internalType": "address",
          "name": "owner",
          "type": "address"
        },
        {
          "internalType": "address",
          "name": "operator",
          "type": "address"
        }
      ],
      "name": "isApprovedForAll",
      "outputs": [
        {
          "internalType": "bool",
          "name": "",
          "type": "bool"
        }
      ],
      "stateMutability": "view",
      "type": "function"
    },
    {
      "inputs": [],
      "name": "maxSupply",
      "outputs": [
        {
          "internalType": "uint256",
          "name": "",
          "type": "uint256"
        }
      ],
      "stateMutability": "view",
      "type": "function"
    },
    {
      "inputs": [],
      "name": "name",
      "outputs": [
        {
          "internalType": "string",
          "name": "",
          "type": "string"
        }
      ],
      "stateMutability": "view",
      "type": "function"
    },
    {
      "inputs": [],
      "name": "owner",
      "outputs": [
        {
          "internalType": "address",
          "name": "",
          "type": "address"
        }
      ],
      "stateMutability": "view",
      "type": "function"
    },
    {
      "inputs": [
        {
          "internalType": "uint256",
          "name": "tokenId",
          "type": "uint256"
        }
      ],
      "name": "ownerOf",
      "outputs": [
        {
          "internalType": "address",
          "name": "",
          "type": "address"
        }
      ],
      "stateMutability": "view",
      "type": "function"
    },
    {
      "inputs": [],
      "name": "pause",
      "outputs": [],
      "stateMutability": "nonpayable",
      "type": "function"
    },
    {
      "inputs": [],
      "name": "paused",
      "outputs": [
        {
          "internalType": "bool",
          "name": "",
          "type": "bool"
        }
      ],
      "stateMutability": "view",
      "type": "function"
    },
    {
      "inputs": [],
      "name": "publicMint",
      "outputs": [],
      "stateMutability": "payable",
      "type": "function"
    },
    {
      "inputs": [],
      "name": "renounceOwnership",
      "outputs": [],
      "stateMutability": "nonpayable",
      "type": "function"
    },
    {
      "inputs": [
        {
          "internalType": "address",
          "name": "from",
          "type": "address"
        },
        {
          "internalType": "address",
          "name": "to",
          "type": "address"
        },
        {
          "internalType": "uint256",
          "name": "tokenId",
          "type": "uint256"
        }
      ],
      "name": "safeTransferFrom",
      "outputs": [],
      "stateMutability": "nonpayable",
      "type": "function"
    },
    {
      "inputs": [
        {
          "internalType": "address",
          "name": "from",
          "type": "address"
        },
        {
          "internalType": "address",
          "name": "to",
          "type": "address"
        },
        {
          "internalType": "uint256",
          "name": "tokenId",
          "type": "uint256"
        },
        {
          "internalType": "bytes",
          "name": "data",
          "type": "bytes"
        }
      ],
      "name": "safeTransferFrom",
      "outputs": [],
      "stateMutability": "nonpayable",
      "type": "function"
    },
    {
      "inputs": [
        {
          "internalType": "address",
          "name": "operator",
          "type": "address"
        },
        {
          "internalType": "bool",
          "name": "approved",
          "type": "bool"
        }
      ],
      "name": "setApprovalForAll",
      "outputs": [],
      "stateMutability": "nonpayable",
      "type": "function"
    },
    {
      "inputs": [],
      "name": "specialMint",
      "outputs": [],
      "stateMutability": "payable",
      "type": "function"
    },
    {
      "inputs": [],
      "name": "startPreSale",
      "outputs": [],
      "stateMutability": "nonpayable",
      "type": "function"
    },
    {
      "inputs": [
        {
          "internalType": "bytes4",
          "name": "interfaceId",
          "type": "bytes4"
        }
      ],
      "name": "supportsInterface",
      "outputs": [
        {
          "internalType": "bool",
          "name": "",
          "type": "bool"
        }
      ],
      "stateMutability": "view",
      "type": "function"
    },
    {
      "inputs": [],
      "name": "symbol",
      "outputs": [
        {
          "internalType": "string",
          "name": "",
          "type": "string"
        }
      ],
      "stateMutability": "view",
      "type": "function"
    },
    {
      "inputs": [
        {
          "internalType": "uint256",
          "name": "tokenId",
          "type": "uint256"
        }
      ],
      "name": "tokenURI",
      "outputs": [
        {
          "internalType": "string",
          "name": "",
          "type": "string"
        }
      ],
      "stateMutability": "view",
      "type": "function"
    },
    {
      "inputs": [],
      "name": "totalSupply",
      "outputs": [
        {
          "internalType": "uint256",
          "name": "",
          "type": "uint256"
        }
      ],
      "stateMutability": "view",
      "type": "function"
    },
    {
      "inputs": [
        {
          "internalType": "address",
          "name": "from",
          "type": "address"
        },
        {
          "internalType": "address",
          "name": "to",
          "type": "address"
        },
        {
          "internalType": "uint256",
          "name": "tokenId",
          "type": "uint256"
        }
      ],
      "name": "transferFrom",
      "outputs": [],
      "stateMutability": "nonpayable",
      "type": "function"
    },
    {
      "inputs": [
        {
          "internalType": "address",
          "name": "newOwner",
          "type": "address"
        }
      ],
      "name": "transferOwnership",
      "outputs": [],
      "stateMutability": "nonpayable",
      "type": "function"
    },
    {
      "inputs": [],
      "name": "unpause",
      "outputs": [],
      "stateMutability": "nonpayable",
      "type": "function"
    }
  ],
  "bytecode": "0x608060405266038d7ea4c680006008556000600960006101000a81548160ff021916908360028111156200003857620000376200024c565b5b02179055503480156200004a57600080fd5b50336040518060400160405280600581526020017f416d54656b0000000000000000000000000000000000000000000000000000008152506040518060400160405280600381526020017f4d544b00000000000000000000000000000000000000000000000000000000008152508160009081620000c99190620004f5565b508060019081620000db9190620004f5565b5050506000600660006101000a81548160ff021916908315150217905550600073ffffffffffffffffffffffffffffffffffffffff168173ffffffffffffffffffffffffffffffffffffffff16036200016e5760006040517f1e4fbdf700000000000000000000000000000000000000000000000000000000815260040162000165919062000621565b60405180910390fd5b6200017f816200018660201b60201c565b506200063e565b6000600660019054906101000a900473ffffffffffffffffffffffffffffffffffffffff16905081600660016101000a81548173ffffffffffffffffffffffffffffffffffffffff021916908373ffffffffffffffffffffffffffffffffffffffff1602179055508173ffffffffffffffffffffffffffffffffffffffff168173ffffffffffffffffffffffffffffffffffffffff167f8be0079c531659141344cd1fd0a4f28419497f9722a3daafe3b4186f6b6457e060405160405180910390a35050565b7f4e487b7100000000000000000000000000000000000000000000000000000000600052602160045260246000fd5b600081519050919050565b7f4e487b7100000000000000000000000000000000000000000000000000000000600052604160045260246000fd5b7f4e487b7100000000000000000000000000000000000000000000000000000000600052602260045260246000fd5b60006002820490506001821680620002fd57607f821691505b602082108103620003135762000312620002b5565b5b50919050565b60008190508160005260206000209050919050565b60006020601f8301049050919050565b600082821b905092915050565b6000600883026200037d7fffffffffffffffffffffffffffffffffffffffffffffffffffffffffffffffff826200033e565b6200038986836200033e565b95508019841693508086168417925050509392505050565b6000819050919050565b6000819050919050565b6000620003d6620003d0620003ca84620003a1565b620003ab565b620003a1565b9050919050565b6000819050919050565b620003f283620003b5565b6200040a6200040182620003dd565b8484546200034b565b825550505050565b600090565b6200042162000412565b6200042e818484620003e7565b505050565b5b8181101562000456576200044a60008262000417565b60018101905062000434565b5050565b601f821115620004a5576200046f8162000319565b6200047a846200032e565b810160208510156200048a578190505b620004a262000499856200032e565b83018262000433565b50505b505050565b600082821c905092915050565b6000620004ca60001984600802620004aa565b1980831691505092915050565b6000620004e58383620004b7565b9150826002028217905092915050565b62000500826200027b565b67ffffffffffffffff8111156200051c576200051b62000286565b5b620005288254620002e4565b620005358282856200045a565b600060209050601f8311600181146200056d576000841562000558578287015190505b620005648582620004d7565b865550620005d4565b601f1984166200057d8662000319565b60005b82811015620005a75784890151825560018201915060208501945060208101905062000580565b86831015620005c75784890151620005c3601f891682620004b7565b8355505b6001600288020188555050505b505050505050565b600073ffffffffffffffffffffffffffffffffffffffff82169050919050565b60006200060982620005dc565b9050919050565b6200061b81620005fc565b82525050565b600060208201905062000638600083018462000610565b92915050565b612ccd806200064e6000396000f3fe6080604052600436106101b75760003560e01c80636352211e116100ec578063a2b40d191161008a578063d5abeb0111610064578063d5abeb011461057c578063e985e9c5146105a7578063ee889ed0146105e4578063f2fde38b146105fb576101b7565b8063a2b40d19146104ed578063b88d4fde14610516578063c87b56dd1461053f576101b7565b80638456cb59116100c65780638456cb59146104575780638da5cb5b1461046e57806395d89b4114610499578063a22cb465146104c4576101b7565b80636352211e146103c657806370a0823114610403578063715018a614610440576101b7565b806323b872dd1161015957806342842e0e1161013357806342842e0e1461033257806342966c681461035b57806355dd574c146103845780635c975abb1461039b576101b7565b806323b872dd146102e857806326092b83146103115780633f4ba83a1461031b576101b7565b8063095ea7b311610195578063095ea7b314610261578063096b02cc1461028a5780630f017a61146102b357806318160ddd146102bd576101b7565b806301ffc9a7146101bc57806306fdde03146101f9578063081812fc14610224575b600080fd5b3480156101c857600080fd5b506101e360048036038101906101de919061217f565b610624565b6040516101f091906121c7565b60405180910390f35b34801561020557600080fd5b5061020e610706565b60405161021b9190612272565b60405180910390f35b34801561023057600080fd5b5061024b600480360381019061024691906122ca565b610798565b6040516102589190612338565b60405180910390f35b34801561026d57600080fd5b506102886004803603810190610283919061237f565b6107b4565b005b34801561029657600080fd5b506102b160048036038101906102ac91906123bf565b6107ca565b005b6102bb61082d565b005b3480156102c957600080fd5b506102d2610924565b6040516102df91906123fb565b60405180910390f35b3480156102f457600080fd5b5061030f600480360381019061030a9190612416565b61092e565b005b610319610a30565b005b34801561032757600080fd5b50610330610a96565b005b34801561033e57600080fd5b5061035960048036038101906103549190612416565b610aa8565b005b34801561036757600080fd5b50610382600480360381019061037d91906122ca565b610ac8565b005b34801561039057600080fd5b50610399610adf565b005b3480156103a757600080fd5b506103b0610b8a565b6040516103bd91906121c7565b60405180910390f35b3480156103d257600080fd5b506103ed60048036038101906103e891906122ca565b610ba1565b6040516103fa9190612338565b60405180910390f35b34801561040f57600080fd5b5061042a600480360381019061042591906123bf565b610bb3565b60405161043791906123fb565b60405180910390f35b34801561044c57600080fd5b50610455610c6d565b005b34801561046357600080fd5b5061046c610c81565b005b34801561047a57600080fd5b50610483610c93565b6040516104909190612338565b60405180910390f35b3480156104a557600080fd5b506104ae610cbd565b6040516104bb9190612272565b60405180910390f35b3480156104d057600080fd5b506104eb60048036038101906104e69190612495565b610d4f565b005b3480156104f957600080fd5b50610514600480360381019061050f91906122ca565b610d65565b005b34801561052257600080fd5b5061053d6004803603810190610538919061260a565b610d77565b005b34801561054b57600080fd5b50610566600480360381019061056191906122ca565b610d94565b6040516105739190612272565b60405180910390f35b34801561058857600080fd5b50610591610dfd565b60405161059e91906123fb565b60405180910390f35b3480156105b357600080fd5b506105ce60048036038101906105c9919061268d565b610e02565b6040516105db91906121c7565b60405180910390f35b3480156105f057600080fd5b506105f9610e96565b005b34801561060757600080fd5b50610622600480360381019061061d91906123bf565b610f41565b005b60007f80ac58cd000000000000000000000000000000000000000000000000000000007bffffffffffffffffffffffffffffffffffffffffffffffffffffffff1916827bffffffffffffffffffffffffffffffffffffffffffffffffffffffff191614806106ef57507f5b5e139f000000000000000000000000000000000000000000000000000000007bffffffffffffffffffffffffffffffffffffffffffffffffffffffff1916827bffffffffffffffffffffffffffffffffffffffffffffffffffffffff1916145b806106ff57506106fe82610fc7565b5b9050919050565b606060008054610715906126fc565b80601f0160208091040260200160405190810160405280929190818152602001828054610741906126fc565b801561078e5780601f106107635761010080835404028352916020019161078e565b820191906000526020600020905b81548152906001019060200180831161077157829003601f168201915b5050505050905090565b60006107a382611031565b506107ad826110b9565b9050919050565b6107c682826107c16110f6565b6110fe565b5050565b6107d2611110565b6001600a60008373ffffffffffffffffffffffffffffffffffffffff1673ffffffffffffffffffffffffffffffffffffffff16815260200190815260200160002060006101000a81548160ff02191690831515021790555050565b600a60003373ffffffffffffffffffffffffffffffffffffffff1673ffffffffffffffffffffffffffffffffffffffff16815260200190815260200160002060009054906101000a900460ff166108b9576040517f08c379a00000000000000000000000000000000000000000000000000000000081526004016108b090612779565b60405180910390fd5b6000600a60003373ffffffffffffffffffffffffffffffffffffffff1673ffffffffffffffffffffffffffffffffffffffff16815260200190815260200160002060006101000a81548160ff02191690831515021790555061092234660110d9316ec000611197565b565b6000600754905090565b600073ffffffffffffffffffffffffffffffffffffffff168273ffffffffffffffffffffffffffffffffffffffff16036109a05760006040517f64a0ae920000000000000000000000000000000000000000000000000000000081526004016109979190612338565b60405180910390fd5b60006109b483836109af6110f6565b611297565b90508373ffffffffffffffffffffffffffffffffffffffff168173ffffffffffffffffffffffffffffffffffffffff1614610a2a578382826040517f64283d7b000000000000000000000000000000000000000000000000000000008152600401610a2193929190612799565b60405180910390fd5b50505050565b6000660119f17fe16000905060016002811115610a5057610a4f6127d0565b5b600960009054906101000a900460ff166002811115610a7257610a716127d0565b5b03610a8657610a813482611197565b610a93565b610a9234600854611197565b5b50565b610a9e611110565b610aa66112ad565b565b610ac383838360405180602001604052806000815250610d77565b505050565b610adb600082610ad66110f6565b611297565b5050565b610ae7611110565b60006002811115610afb57610afa6127d0565b5b600960009054906101000a900460ff166002811115610b1d57610b1c6127d0565b5b14610b5d576040517f08c379a0000000000000000000000000000000000000000000000000000000008152600401610b549061284b565b60405180910390fd5b6001600960006101000a81548160ff02191690836002811115610b8357610b826127d0565b5b0217905550565b6000600660009054906101000a900460ff16905090565b6000610bac82611031565b9050919050565b60008073ffffffffffffffffffffffffffffffffffffffff168273ffffffffffffffffffffffffffffffffffffffff1603610c265760006040517f89c62b64000000000000000000000000000000000000000000000000000000008152600401610c1d9190612338565b60405180910390fd5b600360008373ffffffffffffffffffffffffffffffffffffffff1673ffffffffffffffffffffffffffffffffffffffff168152602001908152602001600020549050919050565b610c75611110565b610c7f6000611310565b565b610c89611110565b610c916113d6565b565b6000600660019054906101000a900473ffffffffffffffffffffffffffffffffffffffff16905090565b606060018054610ccc906126fc565b80601f0160208091040260200160405190810160405280929190818152602001828054610cf8906126fc565b8015610d455780601f10610d1a57610100808354040283529160200191610d45565b820191906000526020600020905b815481529060010190602001808311610d2857829003601f168201915b5050505050905090565b610d61610d5a6110f6565b8383611439565b5050565b610d6d611110565b8060088190555050565b610d8284848461092e565b610d8e848484846115a8565b50505050565b6060610d9f82611031565b506000610daa61175f565b90506000815111610dca5760405180602001604052806000815250610df5565b80610dd48461177f565b604051602001610de59291906128a7565b6040516020818303038152906040525b915050919050565b600381565b6000600560008473ffffffffffffffffffffffffffffffffffffffff1673ffffffffffffffffffffffffffffffffffffffff16815260200190815260200160002060008373ffffffffffffffffffffffffffffffffffffffff1673ffffffffffffffffffffffffffffffffffffffff16815260200190815260200160002060009054906101000a900460ff16905092915050565b610e9e611110565b60016002811115610eb257610eb16127d0565b5b600960009054906101000a900460ff166002811115610ed457610ed36127d0565b5b14610f14576040517f08c379a0000000000000000000000000000000000000000000000000000000008152600401610f0b9061293d565b60405180910390fd5b6002600960006101000a81548160ff02191690836002811115610f3a57610f396127d0565b5b0217905550565b610f49611110565b600073ffffffffffffffffffffffffffffffffffffffff168173ffffffffffffffffffffffffffffffffffffffff1603610fbb5760006040517f1e4fbdf7000000000000000000000000000000000000000000000000000000008152600401610fb29190612338565b60405180910390fd5b610fc481611310565b50565b60007f01ffc9a7000000000000000000000000000000000000000000000000000000007bffffffffffffffffffffffffffffffffffffffffffffffffffffffff1916827bffffffffffffffffffffffffffffffffffffffffffffffffffffffff1916149050919050565b60008061103d8361184d565b9050600073ffffffffffffffffffffffffffffffffffffffff168173ffffffffffffffffffffffffffffffffffffffff16036110b057826040517f7e2732890000000000000000000000000000000000000000000000000000000081526004016110a791906123fb565b60405180910390fd5b80915050919050565b60006004600083815260200190815260200160002060009054906101000a900473ffffffffffffffffffffffffffffffffffffffff169050919050565b600033905090565b61110b838383600161188a565b505050565b6111186110f6565b73ffffffffffffffffffffffffffffffffffffffff16611136610c93565b73ffffffffffffffffffffffffffffffffffffffff1614611195576111596110f6565b6040517f118cdaa700000000000000000000000000000000000000000000000000000000815260040161118c9190612338565b60405180910390fd5b565b6007546003116111dc576040517f08c379a00000000000000000000000000000000000000000000000000000000081526004016111d3906129a9565b60405180910390fd5b8082101561121f576040517f08c379a000000000000000000000000000000000000000000000000000000000815260040161121690612a15565b60405180910390fd5b6000151561122b610b8a565b15151461126d576040517f08c379a000000000000000000000000000000000000000000000000000000000815260040161126490612a81565b60405180910390fd5b60006007600081548092919061128290612ad0565b9190505590506112923382611a4f565b505050565b60006112a4848484611a6d565b90509392505050565b6112b5611a8b565b6000600660006101000a81548160ff0219169083151502179055507f5db9ee0a495bf2e6ff9c91a7834c1ba4fdd244a5e8aa4e537bd38aeae4b073aa6112f96110f6565b6040516113069190612338565b60405180910390a1565b6000600660019054906101000a900473ffffffffffffffffffffffffffffffffffffffff16905081600660016101000a81548173ffffffffffffffffffffffffffffffffffffffff021916908373ffffffffffffffffffffffffffffffffffffffff1602179055508173ffffffffffffffffffffffffffffffffffffffff168173ffffffffffffffffffffffffffffffffffffffff167f8be0079c531659141344cd1fd0a4f28419497f9722a3daafe3b4186f6b6457e060405160405180910390a35050565b6113de611acb565b6001600660006101000a81548160ff0219169083151502179055507f62e78cea01bee320cd4e420270b5ea74000d11b0c9f74754ebdbfc544b05a2586114226110f6565b60405161142f9190612338565b60405180910390a1565b600073ffffffffffffffffffffffffffffffffffffffff168273ffffffffffffffffffffffffffffffffffffffff16036114aa57816040517f5b08ba180000000000000000000000000000000000000000000000000000000081526004016114a19190612338565b60405180910390fd5b80600560008573ffffffffffffffffffffffffffffffffffffffff1673ffffffffffffffffffffffffffffffffffffffff16815260200190815260200160002060008473ffffffffffffffffffffffffffffffffffffffff1673ffffffffffffffffffffffffffffffffffffffff16815260200190815260200160002060006101000a81548160ff0219169083151502179055508173ffffffffffffffffffffffffffffffffffffffff168373ffffffffffffffffffffffffffffffffffffffff167f17307eab39ab6107e8899845ad3d59bd9653f200f220920489ca2b5937696c318360405161159b91906121c7565b60405180910390a3505050565b60008373ffffffffffffffffffffffffffffffffffffffff163b1115611759578273ffffffffffffffffffffffffffffffffffffffff1663150b7a026115ec6110f6565b8685856040518563ffffffff1660e01b815260040161160e9493929190612b6d565b6020604051808303816000875af192505050801561164a57506040513d601f19601f820116820180604052508101906116479190612bce565b60015b6116ce573d806000811461167a576040519150601f19603f3d011682016040523d82523d6000602084013e61167f565b606091505b5060008151036116c657836040517f64a0ae920000000000000000000000000000000000000000000000000000000081526004016116bd9190612338565b60405180910390fd5b805181602001fd5b63150b7a0260e01b7bffffffffffffffffffffffffffffffffffffffffffffffffffffffff1916817bffffffffffffffffffffffffffffffffffffffffffffffffffffffff19161461175757836040517f64a0ae9200000000000000000000000000000000000000000000000000000000815260040161174e9190612338565b60405180910390fd5b505b50505050565b6060604051806080016040528060448152602001612c5460449139905090565b60606000600161178e84611b0c565b01905060008167ffffffffffffffff8111156117ad576117ac6124df565b5b6040519080825280601f01601f1916602001820160405280156117df5781602001600182028036833780820191505090505b509050600082602001820190505b600115611842578080600190039150507f3031323334353637383961626364656600000000000000000000000000000000600a86061a8153600a858161183657611835612bfb565b5b049450600085036117ed575b819350505050919050565b60006002600083815260200190815260200160002060009054906101000a900473ffffffffffffffffffffffffffffffffffffffff169050919050565b80806118c35750600073ffffffffffffffffffffffffffffffffffffffff168273ffffffffffffffffffffffffffffffffffffffff1614155b156119f75760006118d384611031565b9050600073ffffffffffffffffffffffffffffffffffffffff168373ffffffffffffffffffffffffffffffffffffffff161415801561193e57508273ffffffffffffffffffffffffffffffffffffffff168173ffffffffffffffffffffffffffffffffffffffff1614155b8015611951575061194f8184610e02565b155b1561199357826040517fa9fbf51f00000000000000000000000000000000000000000000000000000000815260040161198a9190612338565b60405180910390fd5b81156119f557838573ffffffffffffffffffffffffffffffffffffffff168273ffffffffffffffffffffffffffffffffffffffff167f8c5be1e5ebec7d5bd14f71427d1e84f3dd0314c0f7b2291e5b200ac8c7c3b92560405160405180910390a45b505b836004600085815260200190815260200160002060006101000a81548173ffffffffffffffffffffffffffffffffffffffff021916908373ffffffffffffffffffffffffffffffffffffffff16021790555050505050565b611a69828260405180602001604052806000815250611c5f565b5050565b6000611a77611acb565b611a82848484611c7b565b90509392505050565b611a93610b8a565b611ac9576040517f8dfc202b00000000000000000000000000000000000000000000000000000000815260040160405180910390fd5b565b611ad3610b8a565b15611b0a576040517fd93c066500000000000000000000000000000000000000000000000000000000815260040160405180910390fd5b565b600080600090507a184f03e93ff9f4daa797ed6e38ed64bf6a1f0100000000000000008310611b6a577a184f03e93ff9f4daa797ed6e38ed64bf6a1f0100000000000000008381611b6057611b5f612bfb565b5b0492506040810190505b6d04ee2d6d415b85acef81000000008310611ba7576d04ee2d6d415b85acef81000000008381611b9d57611b9c612bfb565b5b0492506020810190505b662386f26fc100008310611bd657662386f26fc100008381611bcc57611bcb612bfb565b5b0492506010810190505b6305f5e1008310611bff576305f5e1008381611bf557611bf4612bfb565b5b0492506008810190505b6127108310611c24576127108381611c1a57611c19612bfb565b5b0492506004810190505b60648310611c475760648381611c3d57611c3c612bfb565b5b0492506002810190505b600a8310611c56576001810190505b80915050919050565b611c698383611e95565b611c7660008484846115a8565b505050565b600080611c878461184d565b9050600073ffffffffffffffffffffffffffffffffffffffff168373ffffffffffffffffffffffffffffffffffffffff1614611cc957611cc8818486611f8e565b5b600073ffffffffffffffffffffffffffffffffffffffff168173ffffffffffffffffffffffffffffffffffffffff1614611d5a57611d0b60008560008061188a565b6001600360008373ffffffffffffffffffffffffffffffffffffffff1673ffffffffffffffffffffffffffffffffffffffff168152602001908152602001600020600082825403925050819055505b600073ffffffffffffffffffffffffffffffffffffffff168573ffffffffffffffffffffffffffffffffffffffff1614611ddd576001600360008773ffffffffffffffffffffffffffffffffffffffff1673ffffffffffffffffffffffffffffffffffffffff168152602001908152602001600020600082825401925050819055505b846002600086815260200190815260200160002060006101000a81548173ffffffffffffffffffffffffffffffffffffffff021916908373ffffffffffffffffffffffffffffffffffffffff160217905550838573ffffffffffffffffffffffffffffffffffffffff168273ffffffffffffffffffffffffffffffffffffffff167fddf252ad1be2c89b69c2b068fc378daa952ba7f163c4a11628f55a4df523b3ef60405160405180910390a4809150509392505050565b600073ffffffffffffffffffffffffffffffffffffffff168273ffffffffffffffffffffffffffffffffffffffff1603611f075760006040517f64a0ae92000000000000000000000000000000000000000000000000000000008152600401611efe9190612338565b60405180910390fd5b6000611f1583836000611297565b9050600073ffffffffffffffffffffffffffffffffffffffff168173ffffffffffffffffffffffffffffffffffffffff1614611f895760006040517f73c6ac6e000000000000000000000000000000000000000000000000000000008152600401611f809190612338565b60405180910390fd5b505050565b611f99838383612052565b61204d57600073ffffffffffffffffffffffffffffffffffffffff168373ffffffffffffffffffffffffffffffffffffffff160361200e57806040517f7e27328900000000000000000000000000000000000000000000000000000000815260040161200591906123fb565b60405180910390fd5b81816040517f177e802f000000000000000000000000000000000000000000000000000000008152600401612044929190612c2a565b60405180910390fd5b505050565b60008073ffffffffffffffffffffffffffffffffffffffff168373ffffffffffffffffffffffffffffffffffffffff161415801561210a57508273ffffffffffffffffffffffffffffffffffffffff168473ffffffffffffffffffffffffffffffffffffffff1614806120cb57506120ca8484610e02565b5b8061210957508273ffffffffffffffffffffffffffffffffffffffff166120f1836110b9565b73ffffffffffffffffffffffffffffffffffffffff16145b5b90509392505050565b6000604051905090565b600080fd5b600080fd5b60007fffffffff0000000000000000000000000000000000000000000000000000000082169050919050565b61215c81612127565b811461216757600080fd5b50565b60008135905061217981612153565b92915050565b6000602082840312156121955761219461211d565b5b60006121a38482850161216a565b91505092915050565b60008115159050919050565b6121c1816121ac565b82525050565b60006020820190506121dc60008301846121b8565b92915050565b600081519050919050565b600082825260208201905092915050565b60005b8381101561221c578082015181840152602081019050612201565b60008484015250505050565b6000601f19601f8301169050919050565b6000612244826121e2565b61224e81856121ed565b935061225e8185602086016121fe565b61226781612228565b840191505092915050565b6000602082019050818103600083015261228c8184612239565b905092915050565b6000819050919050565b6122a781612294565b81146122b257600080fd5b50565b6000813590506122c48161229e565b92915050565b6000602082840312156122e0576122df61211d565b5b60006122ee848285016122b5565b91505092915050565b600073ffffffffffffffffffffffffffffffffffffffff82169050919050565b6000612322826122f7565b9050919050565b61233281612317565b82525050565b600060208201905061234d6000830184612329565b92915050565b61235c81612317565b811461236757600080fd5b50565b60008135905061237981612353565b92915050565b600080604083850312156123965761239561211d565b5b60006123a48582860161236a565b92505060206123b5858286016122b5565b9150509250929050565b6000602082840312156123d5576123d461211d565b5b60006123e38482850161236a565b91505092915050565b6123f581612294565b82525050565b600060208201905061241060008301846123ec565b92915050565b60008060006060848603121561242f5761242e61211d565b5b600061243d8682870161236a565b935050602061244e8682870161236a565b925050604061245f868287016122b5565b9150509250925092565b612472816121ac565b811461247d57600080fd5b50565b60008135905061248f81612469565b92915050565b600080604083850312156124ac576124ab61211d565b5b60006124ba8582860161236a565b92505060206124cb85828601612480565b9150509250929050565b600080fd5b600080fd5b7f4e487b7100000000000000000000000000000000000000000000000000000000600052604160045260246000fd5b61251782612228565b810181811067ffffffffffffffff82111715612536576125356124df565b5b80604052505050565b6000612549612113565b9050612555828261250e565b919050565b600067ffffffffffffffff821115612575576125746124df565b5b61257e82612228565b9050602081019050919050565b82818337600083830152505050565b60006125ad6125a88461255a565b61253f565b9050828152602081018484840111156125c9576125c86124da565b5b6125d484828561258b565b509392505050565b600082601f8301126125f1576125f06124d5565b5b813561260184826020860161259a565b91505092915050565b600080600080608085870312156126245761262361211d565b5b60006126328782880161236a565b94505060206126438782880161236a565b9350506040612654878288016122b5565b925050606085013567ffffffffffffffff81111561267557612674612122565b5b612681878288016125dc565b91505092959194509250565b600080604083850312156126a4576126a361211d565b5b60006126b28582860161236a565b92505060206126c38582860161236a565b9150509250929050565b7f4e487b7100000000000000000000000000000000000000000000000000000000600052602260045260246000fd5b6000600282049050600182168061271457607f821691505b602082108103612727576127266126cd565b5b50919050565b7f796f7520617265206e6f7420696e206c69737400000000000000000000000000600082015250565b60006127636013836121ed565b915061276e8261272d565b602082019050919050565b6000602082019050818103600083015261279281612756565b9050919050565b60006060820190506127ae6000830186612329565b6127bb60208301856123ec565b6127c86040830184612329565b949350505050565b7f4e487b7100000000000000000000000000000000000000000000000000000000600052602160045260246000fd5b7f7072652053616c6520656e646564000000000000000000000000000000000000600082015250565b6000612835600e836121ed565b9150612840826127ff565b602082019050919050565b6000602082019050818103600083015261286481612828565b9050919050565b600081905092915050565b6000612881826121e2565b61288b818561286b565b935061289b8185602086016121fe565b80840191505092915050565b60006128b38285612876565b91506128bf8284612876565b91508190509392505050565b7f7072652073616c6520656e646564206f72206e6f74207965742073746172746560008201527f6400000000000000000000000000000000000000000000000000000000000000602082015250565b60006129276021836121ed565b9150612932826128cb565b604082019050919050565b600060208201905081810360008301526129568161291a565b9050919050565b7f6d617820737570706c7920726561636865640000000000000000000000000000600082015250565b60006129936012836121ed565b915061299e8261295d565b602082019050919050565b600060208201905081810360008301526129c281612986565b9050919050565b7f6e6f7420656e6f7567682066756e647300000000000000000000000000000000600082015250565b60006129ff6010836121ed565b9150612a0a826129c9565b602082019050919050565b60006020820190508181036000830152612a2e816129f2565b9050919050565b7f6d696e74696e6720697320707268696269746564207269676874206e6f770000600082015250565b6000612a6b601e836121ed565b9150612a7682612a35565b602082019050919050565b60006020820190508181036000830152612a9a81612a5e565b9050919050565b7f4e487b7100000000000000000000000000000000000000000000000000000000600052601160045260246000fd5b6000612adb82612294565b91507fffffffffffffffffffffffffffffffffffffffffffffffffffffffffffffffff8203612b0d57612b0c612aa1565b5b600182019050919050565b600081519050919050565b600082825260208201905092915050565b6000612b3f82612b18565b612b498185612b23565b9350612b598185602086016121fe565b612b6281612228565b840191505092915050565b6000608082019050612b826000830187612329565b612b8f6020830186612329565b612b9c60408301856123ec565b8181036060830152612bae8184612b34565b905095945050505050565b600081519050612bc881612153565b92915050565b600060208284031215612be457612be361211d565b5b6000612bf284828501612bb9565b91505092915050565b7f4e487b7100000000000000000000000000000000000000000000000000000000600052601260045260246000fd5b6000604082019050612c3f6000830185612329565b612c4c60208301846123ec565b939250505056fe68747470733a2f2f697066732e696f2f697066732f516d504d6334746342734d714c5275435174506d506538346270536a7243334b793774334a5775485859423461532fa2646970667358221220c39ebb6ccf7838ae1f39441c0fd641b5baffb21da9b06b5368ee6ab0947b851b64736f6c63430008140033",
  "linkReferences": {},
  "deployedLinkReferences": {}
}