{
  "_format": "hh-sol-artifact-1",
  "contractName": "AmTek",
  "sourceName": "contracts/AmTek.sol",
  "abi": [
    {
      "inputs": [],
      "stateMutability": "nonpayable",
      "type": "constructor"
    },
    {
      "inputs": [
        {
          "internalType": "address",
          "name": "sender",
          "type": "address"
        },
        {
          "internalType": "uint256",
          "name": "tokenId",
          "type": "uint256"
        },
        {
          "internalType": "address",
          "name": "owner",
          "type": "address"
        }
      ],
      "name": "ERC721IncorrectOwner",
      "type": "error"
    },
    {
      "inputs": [
        {
          "internalType": "address",
          "name": "operator",
          "type": "address"
        },
        {
          "internalType": "uint256",
          "name": "tokenId",
          "type": "uint256"
        }
      ],
      "name": "ERC721InsufficientApproval",
      "type": "error"
    },
    {
      "inputs": [
        {
          "internalType": "address",
          "name": "approver",
          "type": "address"
        }
      ],
      "name": "ERC721InvalidApprover",
      "type": "error"
    },
    {
      "inputs": [
        {
          "internalType": "address",
          "name": "operator",
          "type": "address"
        }
      ],
      "name": "ERC721InvalidOperator",
      "type": "error"
    },
    {
      "inputs": [
        {
          "internalType": "address",
          "name": "owner",
          "type": "address"
        }
      ],
      "name": "ERC721InvalidOwner",
      "type": "error"
    },
    {
      "inputs": [
        {
          "internalType": "address",
          "name": "receiver",
          "type": "address"
        }
      ],
      "name": "ERC721InvalidReceiver",
      "type": "error"
    },
    {
      "inputs": [
        {
          "internalType": "address",
          "name": "sender",
          "type": "address"
        }
      ],
      "name": "ERC721InvalidSender",
      "type": "error"
    },
    {
      "inputs": [
        {
          "internalType": "uint256",
          "name": "tokenId",
          "type": "uint256"
        }
      ],
      "name": "ERC721NonexistentToken",
      "type": "error"
    },
    {
      "inputs": [],
      "name": "EnforcedPause",
      "type": "error"
    },
    {
      "inputs": [],
      "name": "ExpectedPause",
      "type": "error"
    },
    {
      "inputs": [
        {
          "internalType": "address",
          "name": "owner",
          "type": "address"
        }
      ],
      "name": "OwnableInvalidOwner",
      "type": "error"
    },
    {
      "inputs": [
        {
          "internalType": "address",
          "name": "account",
          "type": "address"
        }
      ],
      "name": "OwnableUnauthorizedAccount",
      "type": "error"
    },
    {
      "anonymous": false,
      "inputs": [
        {
          "indexed": true,
          "internalType": "address",
          "name": "owner",
          "type": "address"
        },
        {
          "indexed": true,
          "internalType": "address",
          "name": "approved",
          "type": "address"
        },
        {
          "indexed": true,
          "internalType": "uint256",
          "name": "tokenId",
          "type": "uint256"
        }
      ],
      "name": "Approval",
      "type": "event"
    },
    {
      "anonymous": false,
      "inputs": [
        {
          "indexed": true,
          "internalType": "address",
          "name": "owner",
          "type": "address"
        },
        {
          "indexed": true,
          "internalType": "address",
          "name": "operator",
          "type": "address"
        },
        {
          "indexed": false,
          "internalType": "bool",
          "name": "approved",
          "type": "bool"
        }
      ],
      "name": "ApprovalForAll",
      "type": "event"
    },
    {
      "anonymous": false,
      "inputs": [
        {
          "indexed": true,
          "internalType": "address",
          "name": "previousOwner",
          "type": "address"
        },
        {
          "indexed": true,
          "internalType": "address",
          "name": "newOwner",
          "type": "address"
        }
      ],
      "name": "OwnershipTransferred",
      "type": "event"
    },
    {
      "anonymous": false,
      "inputs": [
        {
          "indexed": false,
          "internalType": "address",
          "name": "account",
          "type": "address"
        }
      ],
      "name": "Paused",
      "type": "event"
    },
    {
      "anonymous": false,
      "inputs": [
        {
          "indexed": true,
          "internalType": "address",
          "name": "from",
          "type": "address"
        },
        {
          "indexed": true,
          "internalType": "address",
          "name": "to",
          "type": "address"
        },
        {
          "indexed": true,
          "internalType": "uint256",
          "name": "tokenId",
          "type": "uint256"
        }
      ],
      "name": "Transfer",
      "type": "event"
    },
    {
      "anonymous": false,
      "inputs": [
        {
          "indexed": false,
          "internalType": "address",
          "name": "account",
          "type": "address"
        }
      ],
      "name": "Unpaused",
      "type": "event"
    },
    {
      "inputs": [
        {
          "internalType": "address",
          "name": "_peer",
          "type": "address"
        }
      ],
      "name": "addToSpecial",
      "outputs": [],
      "stateMutability": "nonpayable",
      "type": "function"
    },
    {
      "inputs": [
        {
          "internalType": "address",
          "name": "to",
          "type": "address"
        },
        {
          "internalType": "uint256",
          "name": "tokenId",
          "type": "uint256"
        }
      ],
      "name": "approve",
      "outputs": [],
      "stateMutability": "nonpayable",
      "type": "function"
    },
    {
      "inputs": [
        {
          "internalType": "address",
          "name": "owner",
          "type": "address"
        }
      ],
      "name": "balanceOf",
      "outputs": [
        {
          "internalType": "uint256",
          "name": "",
          "type": "uint256"
        }
      ],
      "stateMutability": "view",
      "type": "function"
    },
    {
      "inputs": [
        {
          "internalType": "uint256",
          "name": "tokenId",
          "type": "uint256"
        }
      ],
      "name": "burn",
      "outputs": [],
      "stateMutability": "nonpayable",
      "type": "function"
    },
    {
      "inputs": [
        {
          "internalType": "uint256",
          "name": "_price",
          "type": "uint256"
        }
      ],
      "name": "changePrice",
      "outputs": [],
      "stateMutability": "nonpayable",
      "type": "function"
    },
    {
      "inputs": [],
      "name": "endPreSale",
      "outputs": [],
      "stateMutability": "nonpayable",
      "type": "function"
    },
    {
      "inputs": [
        {
          "internalType": "uint256",
          "name": "tokenId",
          "type": "uint256"
        }
      ],
      "name": "getApproved",
      "outputs": [
        {
          "internalType": "address",
          "name": "",
          "type": "address"
        }
      ],
      "stateMutability": "view",
      "type": "function"
    },
    {
      "inputs": [
        {
          "internalType": "address",
          "name": "owner",
          "type": "address"
        },
        {
          "internalType": "address",
          "name": "operator",
          "type": "address"
        }
      ],
      "name": "isApprovedForAll",
      "outputs": [
        {
          "internalType": "bool",
          "name": "",
          "type": "bool"
        }
      ],
      "stateMutability": "view",
      "type": "function"
    },
    {
      "inputs": [],
      "name": "maxSupply",
      "outputs": [
        {
          "internalType": "uint256",
          "name": "",
          "type": "uint256"
        }
      ],
      "stateMutability": "view",
      "type": "function"
    },
    {
      "inputs": [],
      "name": "name",
      "outputs": [
        {
          "internalType": "string",
          "name": "",
          "type": "string"
        }
      ],
      "stateMutability": "view",
      "type": "function"
    },
    {
      "inputs": [],
      "name": "owner",
      "outputs": [
        {
          "internalType": "address",
          "name": "",
          "type": "address"
        }
      ],
      "stateMutability": "view",
      "type": "function"
    },
    {
      "inputs": [
        {
          "internalType": "uint256",
          "name": "tokenId",
          "type": "uint256"
        }
      ],
      "name": "ownerOf",
      "outputs": [
        {
          "internalType": "address",
          "name": "",
          "type": "address"
        }
      ],
      "stateMutability": "view",
      "type": "function"
    },
    {
      "inputs": [],
      "name": "pause",
      "outputs": [],
      "stateMutability": "nonpayable",
      "type": "function"
    },
    {
      "inputs": [],
      "name": "paused",
      "outputs": [
        {
          "internalType": "bool",
          "name": "",
          "type": "bool"
        }
      ],
      "stateMutability": "view",
      "type": "function"
    },
    {
      "inputs": [],
      "name": "publicMint",
      "outputs": [],
      "stateMutability": "payable",
      "type": "function"
    },
    {
      "inputs": [],
      "name": "renounceOwnership",
      "outputs": [],
      "stateMutability": "nonpayable",
      "type": "function"
    },
    {
      "inputs": [
        {
          "internalType": "address",
          "name": "from",
          "type": "address"
        },
        {
          "internalType": "address",
          "name": "to",
          "type": "address"
        },
        {
          "internalType": "uint256",
          "name": "tokenId",
          "type": "uint256"
        }
      ],
      "name": "safeTransferFrom",
      "outputs": [],
      "stateMutability": "nonpayable",
      "type": "function"
    },
    {
      "inputs": [
        {
          "internalType": "address",
          "name": "from",
          "type": "address"
        },
        {
          "internalType": "address",
          "name": "to",
          "type": "address"
        },
        {
          "internalType": "uint256",
          "name": "tokenId",
          "type": "uint256"
        },
        {
          "internalType": "bytes",
          "name": "data",
          "type": "bytes"
        }
      ],
      "name": "safeTransferFrom",
      "outputs": [],
      "stateMutability": "nonpayable",
      "type": "function"
    },
    {
      "inputs": [
        {
          "internalType": "address",
          "name": "operator",
          "type": "address"
        },
        {
          "internalType": "bool",
          "name": "approved",
          "type": "bool"
        }
      ],
      "name": "setApprovalForAll",
      "outputs": [],
      "stateMutability": "nonpayable",
      "type": "function"
    },
    {
      "inputs": [],
      "name": "specialMint",
      "outputs": [],
      "stateMutability": "payable",
      "type": "function"
    },
    {
      "inputs": [
        {
          "internalType": "address",
          "name": "",
          "type": "address"
        }
      ],
      "name": "specialPersons",
      "outputs": [
        {
          "internalType": "bool",
          "name": "",
          "type": "bool"
        }
      ],
      "stateMutability": "view",
      "type": "function"
    },
    {
      "inputs": [],
      "name": "startPreSale",
      "outputs": [],
      "stateMutability": "nonpayable",
      "type": "function"
    },
    {
      "inputs": [
        {
          "internalType": "bytes4",
          "name": "interfaceId",
          "type": "bytes4"
        }
      ],
      "name": "supportsInterface",
      "outputs": [
        {
          "internalType": "bool",
          "name": "",
          "type": "bool"
        }
      ],
      "stateMutability": "view",
      "type": "function"
    },
    {
      "inputs": [],
      "name": "symbol",
      "outputs": [
        {
          "internalType": "string",
          "name": "",
          "type": "string"
        }
      ],
      "stateMutability": "view",
      "type": "function"
    },
    {
      "inputs": [],
      "name": "tokenPreSale",
      "outputs": [
        {
          "internalType": "enum AmTek.preSale",
          "name": "",
          "type": "uint8"
        }
      ],
      "stateMutability": "view",
      "type": "function"
    },
    {
      "inputs": [
        {
          "internalType": "uint256",
          "name": "tokenId",
          "type": "uint256"
        }
      ],
      "name": "tokenURI",
      "outputs": [
        {
          "internalType": "string",
          "name": "",
          "type": "string"
        }
      ],
      "stateMutability": "view",
      "type": "function"
    },
    {
      "inputs": [],
      "name": "totalSupply",
      "outputs": [
        {
          "internalType": "uint256",
          "name": "",
          "type": "uint256"
        }
      ],
      "stateMutability": "view",
      "type": "function"
    },
    {
      "inputs": [
        {
          "internalType": "address",
          "name": "from",
          "type": "address"
        },
        {
          "internalType": "address",
          "name": "to",
          "type": "address"
        },
        {
          "internalType": "uint256",
          "name": "tokenId",
          "type": "uint256"
        }
      ],
      "name": "transferFrom",
      "outputs": [],
      "stateMutability": "nonpayable",
      "type": "function"
    },
    {
      "inputs": [
        {
          "internalType": "address",
          "name": "newOwner",
          "type": "address"
        }
      ],
      "name": "transferOwnership",
      "outputs": [],
      "stateMutability": "nonpayable",
      "type": "function"
    },
    {
      "inputs": [],
      "name": "unpause",
      "outputs": [],
      "stateMutability": "nonpayable",
      "type": "function"
    }
  ],
  "bytecode": "0x608060405266038d7ea4c680006008556000600960006101000a81548160ff021916908360028111156200003857620000376200024c565b5b02179055503480156200004a57600080fd5b50336040518060400160405280600581526020017f416d54656b0000000000000000000000000000000000000000000000000000008152506040518060400160405280600381526020017f4d544b00000000000000000000000000000000000000000000000000000000008152508160009081620000c99190620004f5565b508060019081620000db9190620004f5565b5050506000600660006101000a81548160ff021916908315150217905550600073ffffffffffffffffffffffffffffffffffffffff168173ffffffffffffffffffffffffffffffffffffffff16036200016e5760006040517f1e4fbdf700000000000000000000000000000000000000000000000000000000815260040162000165919062000621565b60405180910390fd5b6200017f816200018660201b60201c565b506200063e565b6000600660019054906101000a900473ffffffffffffffffffffffffffffffffffffffff16905081600660016101000a81548173ffffffffffffffffffffffffffffffffffffffff021916908373ffffffffffffffffffffffffffffffffffffffff1602179055508173ffffffffffffffffffffffffffffffffffffffff168173ffffffffffffffffffffffffffffffffffffffff167f8be0079c531659141344cd1fd0a4f28419497f9722a3daafe3b4186f6b6457e060405160405180910390a35050565b7f4e487b7100000000000000000000000000000000000000000000000000000000600052602160045260246000fd5b600081519050919050565b7f4e487b7100000000000000000000000000000000000000000000000000000000600052604160045260246000fd5b7f4e487b7100000000000000000000000000000000000000000000000000000000600052602260045260246000fd5b60006002820490506001821680620002fd57607f821691505b602082108103620003135762000312620002b5565b5b50919050565b60008190508160005260206000209050919050565b60006020601f8301049050919050565b600082821b905092915050565b6000600883026200037d7fffffffffffffffffffffffffffffffffffffffffffffffffffffffffffffffff826200033e565b6200038986836200033e565b95508019841693508086168417925050509392505050565b6000819050919050565b6000819050919050565b6000620003d6620003d0620003ca84620003a1565b620003ab565b620003a1565b9050919050565b6000819050919050565b620003f283620003b5565b6200040a6200040182620003dd565b8484546200034b565b825550505050565b600090565b6200042162000412565b6200042e818484620003e7565b505050565b5b8181101562000456576200044a60008262000417565b60018101905062000434565b5050565b601f821115620004a5576200046f8162000319565b6200047a846200032e565b810160208510156200048a578190505b620004a262000499856200032e565b83018262000433565b50505b505050565b600082821c905092915050565b6000620004ca60001984600802620004aa565b1980831691505092915050565b6000620004e58383620004b7565b9150826002028217905092915050565b62000500826200027b565b67ffffffffffffffff8111156200051c576200051b62000286565b5b620005288254620002e4565b620005358282856200045a565b600060209050601f8311600181146200056d576000841562000558578287015190505b620005648582620004d7565b865550620005d4565b601f1984166200057d8662000319565b60005b82811015620005a75784890151825560018201915060208501945060208101905062000580565b86831015620005c75784890151620005c3601f891682620004b7565b8355505b6001600288020188555050505b505050505050565b600073ffffffffffffffffffffffffffffffffffffffff82169050919050565b60006200060982620005dc565b9050919050565b6200061b81620005fc565b82525050565b600060208201905062000638600083018462000610565b92915050565b612de3806200064e6000396000f3fe6080604052600436106101cd5760003560e01c80636352211e116100f7578063a22cb46511610095578063d5abeb0111610064578063d5abeb01146105fa578063e985e9c514610625578063ee889ed014610662578063f2fde38b14610679576101cd565b8063a22cb46514610542578063a2b40d191461056b578063b88d4fde14610594578063c87b56dd146105bd576101cd565b80638456cb59116100d15780638456cb59146104aa5780638c1e21da146104c15780638da5cb5b146104ec57806395d89b4114610517576101cd565b80636352211e1461041957806370a0823114610456578063715018a614610493576101cd565b806323b872dd1161016f57806342966c681161013e57806342966c681461037157806355dd574c1461039a5780635c975abb146103b15780635da5d29d146103dc576101cd565b806323b872dd146102fe57806326092b83146103275780633f4ba83a1461033157806342842e0e14610348576101cd565b8063095ea7b3116101ab578063095ea7b314610277578063096b02cc146102a05780630f017a61146102c957806318160ddd146102d3576101cd565b806301ffc9a7146101d257806306fdde031461020f578063081812fc1461023a575b600080fd5b3480156101de57600080fd5b506101f960048036038101906101f49190612232565b6106a2565b604051610206919061227a565b60405180910390f35b34801561021b57600080fd5b50610224610784565b6040516102319190612325565b60405180910390f35b34801561024657600080fd5b50610261600480360381019061025c919061237d565b610816565b60405161026e91906123eb565b60405180910390f35b34801561028357600080fd5b5061029e60048036038101906102999190612432565b610832565b005b3480156102ac57600080fd5b506102c760048036038101906102c29190612472565b610848565b005b6102d16108ab565b005b3480156102df57600080fd5b506102e86109a2565b6040516102f591906124ae565b60405180910390f35b34801561030a57600080fd5b50610325600480360381019061032091906124c9565b6109ac565b005b61032f610aae565b005b34801561033d57600080fd5b50610346610b14565b005b34801561035457600080fd5b5061036f600480360381019061036a91906124c9565b610b26565b005b34801561037d57600080fd5b506103986004803603810190610393919061237d565b610b46565b005b3480156103a657600080fd5b506103af610b5d565b005b3480156103bd57600080fd5b506103c6610c08565b6040516103d3919061227a565b60405180910390f35b3480156103e857600080fd5b5061040360048036038101906103fe9190612472565b610c1f565b604051610410919061227a565b60405180910390f35b34801561042557600080fd5b50610440600480360381019061043b919061237d565b610c3f565b60405161044d91906123eb565b60405180910390f35b34801561046257600080fd5b5061047d60048036038101906104789190612472565b610c51565b60405161048a91906124ae565b60405180910390f35b34801561049f57600080fd5b506104a8610d0b565b005b3480156104b657600080fd5b506104bf610d1f565b005b3480156104cd57600080fd5b506104d6610d31565b6040516104e39190612593565b60405180910390f35b3480156104f857600080fd5b50610501610d44565b60405161050e91906123eb565b60405180910390f35b34801561052357600080fd5b5061052c610d6e565b6040516105399190612325565b60405180910390f35b34801561054e57600080fd5b50610569600480360381019061056491906125da565b610e00565b005b34801561057757600080fd5b50610592600480360381019061058d919061237d565b610e16565b005b3480156105a057600080fd5b506105bb60048036038101906105b6919061274f565b610e28565b005b3480156105c957600080fd5b506105e460048036038101906105df919061237d565b610e45565b6040516105f19190612325565b60405180910390f35b34801561060657600080fd5b5061060f610eae565b60405161061c91906124ae565b60405180910390f35b34801561063157600080fd5b5061064c600480360381019061064791906127d2565b610eb4565b604051610659919061227a565b60405180910390f35b34801561066e57600080fd5b50610677610f48565b005b34801561068557600080fd5b506106a0600480360381019061069b9190612472565b610ff3565b005b60007f80ac58cd000000000000000000000000000000000000000000000000000000007bffffffffffffffffffffffffffffffffffffffffffffffffffffffff1916827bffffffffffffffffffffffffffffffffffffffffffffffffffffffff1916148061076d57507f5b5e139f000000000000000000000000000000000000000000000000000000007bffffffffffffffffffffffffffffffffffffffffffffffffffffffff1916827bffffffffffffffffffffffffffffffffffffffffffffffffffffffff1916145b8061077d575061077c82611079565b5b9050919050565b60606000805461079390612841565b80601f01602080910402602001604051908101604052809291908181526020018280546107bf90612841565b801561080c5780601f106107e15761010080835404028352916020019161080c565b820191906000526020600020905b8154815290600101906020018083116107ef57829003601f168201915b5050505050905090565b6000610821826110e3565b5061082b8261116b565b9050919050565b610844828261083f6111a8565b6111b0565b5050565b6108506111c2565b6001600a60008373ffffffffffffffffffffffffffffffffffffffff1673ffffffffffffffffffffffffffffffffffffffff16815260200190815260200160002060006101000a81548160ff02191690831515021790555050565b600a60003373ffffffffffffffffffffffffffffffffffffffff1673ffffffffffffffffffffffffffffffffffffffff16815260200190815260200160002060009054906101000a900460ff16610937576040517f08c379a000000000000000000000000000000000000000000000000000000000815260040161092e906128be565b60405180910390fd5b6000600a60003373ffffffffffffffffffffffffffffffffffffffff1673ffffffffffffffffffffffffffffffffffffffff16815260200190815260200160002060006101000a81548160ff0219169083151502179055506109a034660110d9316ec000611249565b565b6000600754905090565b600073ffffffffffffffffffffffffffffffffffffffff168273ffffffffffffffffffffffffffffffffffffffff1603610a1e5760006040517f64a0ae92000000000000000000000000000000000000000000000000000000008152600401610a1591906123eb565b60405180910390fd5b6000610a328383610a2d6111a8565b61134a565b90508373ffffffffffffffffffffffffffffffffffffffff168173ffffffffffffffffffffffffffffffffffffffff1614610aa8578382826040517f64283d7b000000000000000000000000000000000000000000000000000000008152600401610a9f939291906128de565b60405180910390fd5b50505050565b6000660119f17fe16000905060016002811115610ace57610acd61251c565b5b600960009054906101000a900460ff166002811115610af057610aef61251c565b5b03610b0457610aff3482611249565b610b11565b610b1034600854611249565b5b50565b610b1c6111c2565b610b24611360565b565b610b4183838360405180602001604052806000815250610e28565b505050565b610b59600082610b546111a8565b61134a565b5050565b610b656111c2565b60006002811115610b7957610b7861251c565b5b600960009054906101000a900460ff166002811115610b9b57610b9a61251c565b5b14610bdb576040517f08c379a0000000000000000000000000000000000000000000000000000000008152600401610bd290612961565b60405180910390fd5b6001600960006101000a81548160ff02191690836002811115610c0157610c0061251c565b5b0217905550565b6000600660009054906101000a900460ff16905090565b600a6020528060005260406000206000915054906101000a900460ff1681565b6000610c4a826110e3565b9050919050565b60008073ffffffffffffffffffffffffffffffffffffffff168273ffffffffffffffffffffffffffffffffffffffff1603610cc45760006040517f89c62b64000000000000000000000000000000000000000000000000000000008152600401610cbb91906123eb565b60405180910390fd5b600360008373ffffffffffffffffffffffffffffffffffffffff1673ffffffffffffffffffffffffffffffffffffffff168152602001908152602001600020549050919050565b610d136111c2565b610d1d60006113c3565b565b610d276111c2565b610d2f611489565b565b600960009054906101000a900460ff1681565b6000600660019054906101000a900473ffffffffffffffffffffffffffffffffffffffff16905090565b606060018054610d7d90612841565b80601f0160208091040260200160405190810160405280929190818152602001828054610da990612841565b8015610df65780601f10610dcb57610100808354040283529160200191610df6565b820191906000526020600020905b815481529060010190602001808311610dd957829003601f168201915b5050505050905090565b610e12610e0b6111a8565b83836114ec565b5050565b610e1e6111c2565b8060088190555050565b610e338484846109ac565b610e3f8484848461165b565b50505050565b6060610e50826110e3565b506000610e5b611812565b90506000815111610e7b5760405180602001604052806000815250610ea6565b80610e8584611832565b604051602001610e969291906129bd565b6040516020818303038152906040525b915050919050565b61270e81565b6000600560008473ffffffffffffffffffffffffffffffffffffffff1673ffffffffffffffffffffffffffffffffffffffff16815260200190815260200160002060008373ffffffffffffffffffffffffffffffffffffffff1673ffffffffffffffffffffffffffffffffffffffff16815260200190815260200160002060009054906101000a900460ff16905092915050565b610f506111c2565b60016002811115610f6457610f6361251c565b5b600960009054906101000a900460ff166002811115610f8657610f8561251c565b5b14610fc6576040517f08c379a0000000000000000000000000000000000000000000000000000000008152600401610fbd90612a53565b60405180910390fd5b6002600960006101000a81548160ff02191690836002811115610fec57610feb61251c565b5b0217905550565b610ffb6111c2565b600073ffffffffffffffffffffffffffffffffffffffff168173ffffffffffffffffffffffffffffffffffffffff160361106d5760006040517f1e4fbdf700000000000000000000000000000000000000000000000000000000815260040161106491906123eb565b60405180910390fd5b611076816113c3565b50565b60007f01ffc9a7000000000000000000000000000000000000000000000000000000007bffffffffffffffffffffffffffffffffffffffffffffffffffffffff1916827bffffffffffffffffffffffffffffffffffffffffffffffffffffffff1916149050919050565b6000806110ef83611900565b9050600073ffffffffffffffffffffffffffffffffffffffff168173ffffffffffffffffffffffffffffffffffffffff160361116257826040517f7e27328900000000000000000000000000000000000000000000000000000000815260040161115991906124ae565b60405180910390fd5b80915050919050565b60006004600083815260200190815260200160002060009054906101000a900473ffffffffffffffffffffffffffffffffffffffff169050919050565b600033905090565b6111bd838383600161193d565b505050565b6111ca6111a8565b73ffffffffffffffffffffffffffffffffffffffff166111e8610d44565b73ffffffffffffffffffffffffffffffffffffffff16146112475761120b6111a8565b6040517f118cdaa700000000000000000000000000000000000000000000000000000000815260040161123e91906123eb565b60405180910390fd5b565b60075461270e1161128f576040517f08c379a000000000000000000000000000000000000000000000000000000000815260040161128690612abf565b60405180910390fd5b808210156112d2576040517f08c379a00000000000000000000000000000000000000000000000000000000081526004016112c990612b2b565b60405180910390fd5b600015156112de610c08565b151514611320576040517f08c379a000000000000000000000000000000000000000000000000000000000815260040161131790612b97565b60405180910390fd5b60006007600081548092919061133590612be6565b9190505590506113453382611b02565b505050565b6000611357848484611b20565b90509392505050565b611368611b3e565b6000600660006101000a81548160ff0219169083151502179055507f5db9ee0a495bf2e6ff9c91a7834c1ba4fdd244a5e8aa4e537bd38aeae4b073aa6113ac6111a8565b6040516113b991906123eb565b60405180910390a1565b6000600660019054906101000a900473ffffffffffffffffffffffffffffffffffffffff16905081600660016101000a81548173ffffffffffffffffffffffffffffffffffffffff021916908373ffffffffffffffffffffffffffffffffffffffff1602179055508173ffffffffffffffffffffffffffffffffffffffff168173ffffffffffffffffffffffffffffffffffffffff167f8be0079c531659141344cd1fd0a4f28419497f9722a3daafe3b4186f6b6457e060405160405180910390a35050565b611491611b7e565b6001600660006101000a81548160ff0219169083151502179055507f62e78cea01bee320cd4e420270b5ea74000d11b0c9f74754ebdbfc544b05a2586114d56111a8565b6040516114e291906123eb565b60405180910390a1565b600073ffffffffffffffffffffffffffffffffffffffff168273ffffffffffffffffffffffffffffffffffffffff160361155d57816040517f5b08ba1800000000000000000000000000000000000000000000000000000000815260040161155491906123eb565b60405180910390fd5b80600560008573ffffffffffffffffffffffffffffffffffffffff1673ffffffffffffffffffffffffffffffffffffffff16815260200190815260200160002060008473ffffffffffffffffffffffffffffffffffffffff1673ffffffffffffffffffffffffffffffffffffffff16815260200190815260200160002060006101000a81548160ff0219169083151502179055508173ffffffffffffffffffffffffffffffffffffffff168373ffffffffffffffffffffffffffffffffffffffff167f17307eab39ab6107e8899845ad3d59bd9653f200f220920489ca2b5937696c318360405161164e919061227a565b60405180910390a3505050565b60008373ffffffffffffffffffffffffffffffffffffffff163b111561180c578273ffffffffffffffffffffffffffffffffffffffff1663150b7a0261169f6111a8565b8685856040518563ffffffff1660e01b81526004016116c19493929190612c83565b6020604051808303816000875af19250505080156116fd57506040513d601f19601f820116820180604052508101906116fa9190612ce4565b60015b611781573d806000811461172d576040519150601f19603f3d011682016040523d82523d6000602084013e611732565b606091505b50600081510361177957836040517f64a0ae9200000000000000000000000000000000000000000000000000000000815260040161177091906123eb565b60405180910390fd5b805181602001fd5b63150b7a0260e01b7bffffffffffffffffffffffffffffffffffffffffffffffffffffffff1916817bffffffffffffffffffffffffffffffffffffffffffffffffffffffff19161461180a57836040517f64a0ae9200000000000000000000000000000000000000000000000000000000815260040161180191906123eb565b60405180910390fd5b505b50505050565b6060604051806080016040528060448152602001612d6a60449139905090565b60606000600161184184611bbf565b01905060008167ffffffffffffffff8111156118605761185f612624565b5b6040519080825280601f01601f1916602001820160405280156118925781602001600182028036833780820191505090505b509050600082602001820190505b6001156118f5578080600190039150507f3031323334353637383961626364656600000000000000000000000000000000600a86061a8153600a85816118e9576118e8612d11565b5b049450600085036118a0575b819350505050919050565b60006002600083815260200190815260200160002060009054906101000a900473ffffffffffffffffffffffffffffffffffffffff169050919050565b80806119765750600073ffffffffffffffffffffffffffffffffffffffff168273ffffffffffffffffffffffffffffffffffffffff1614155b15611aaa576000611986846110e3565b9050600073ffffffffffffffffffffffffffffffffffffffff168373ffffffffffffffffffffffffffffffffffffffff16141580156119f157508273ffffffffffffffffffffffffffffffffffffffff168173ffffffffffffffffffffffffffffffffffffffff1614155b8015611a045750611a028184610eb4565b155b15611a4657826040517fa9fbf51f000000000000000000000000000000000000000000000000000000008152600401611a3d91906123eb565b60405180910390fd5b8115611aa857838573ffffffffffffffffffffffffffffffffffffffff168273ffffffffffffffffffffffffffffffffffffffff167f8c5be1e5ebec7d5bd14f71427d1e84f3dd0314c0f7b2291e5b200ac8c7c3b92560405160405180910390a45b505b836004600085815260200190815260200160002060006101000a81548173ffffffffffffffffffffffffffffffffffffffff021916908373ffffffffffffffffffffffffffffffffffffffff16021790555050505050565b611b1c828260405180602001604052806000815250611d12565b5050565b6000611b2a611b7e565b611b35848484611d2e565b90509392505050565b611b46610c08565b611b7c576040517f8dfc202b00000000000000000000000000000000000000000000000000000000815260040160405180910390fd5b565b611b86610c08565b15611bbd576040517fd93c066500000000000000000000000000000000000000000000000000000000815260040160405180910390fd5b565b600080600090507a184f03e93ff9f4daa797ed6e38ed64bf6a1f0100000000000000008310611c1d577a184f03e93ff9f4daa797ed6e38ed64bf6a1f0100000000000000008381611c1357611c12612d11565b5b0492506040810190505b6d04ee2d6d415b85acef81000000008310611c5a576d04ee2d6d415b85acef81000000008381611c5057611c4f612d11565b5b0492506020810190505b662386f26fc100008310611c8957662386f26fc100008381611c7f57611c7e612d11565b5b0492506010810190505b6305f5e1008310611cb2576305f5e1008381611ca857611ca7612d11565b5b0492506008810190505b6127108310611cd7576127108381611ccd57611ccc612d11565b5b0492506004810190505b60648310611cfa5760648381611cf057611cef612d11565b5b0492506002810190505b600a8310611d09576001810190505b80915050919050565b611d1c8383611f48565b611d29600084848461165b565b505050565b600080611d3a84611900565b9050600073ffffffffffffffffffffffffffffffffffffffff168373ffffffffffffffffffffffffffffffffffffffff1614611d7c57611d7b818486612041565b5b600073ffffffffffffffffffffffffffffffffffffffff168173ffffffffffffffffffffffffffffffffffffffff1614611e0d57611dbe60008560008061193d565b6001600360008373ffffffffffffffffffffffffffffffffffffffff1673ffffffffffffffffffffffffffffffffffffffff168152602001908152602001600020600082825403925050819055505b600073ffffffffffffffffffffffffffffffffffffffff168573ffffffffffffffffffffffffffffffffffffffff1614611e90576001600360008773ffffffffffffffffffffffffffffffffffffffff1673ffffffffffffffffffffffffffffffffffffffff168152602001908152602001600020600082825401925050819055505b846002600086815260200190815260200160002060006101000a81548173ffffffffffffffffffffffffffffffffffffffff021916908373ffffffffffffffffffffffffffffffffffffffff160217905550838573ffffffffffffffffffffffffffffffffffffffff168273ffffffffffffffffffffffffffffffffffffffff167fddf252ad1be2c89b69c2b068fc378daa952ba7f163c4a11628f55a4df523b3ef60405160405180910390a4809150509392505050565b600073ffffffffffffffffffffffffffffffffffffffff168273ffffffffffffffffffffffffffffffffffffffff1603611fba5760006040517f64a0ae92000000000000000000000000000000000000000000000000000000008152600401611fb191906123eb565b60405180910390fd5b6000611fc88383600061134a565b9050600073ffffffffffffffffffffffffffffffffffffffff168173ffffffffffffffffffffffffffffffffffffffff161461203c5760006040517f73c6ac6e00000000000000000000000000000000000000000000000000000000815260040161203391906123eb565b60405180910390fd5b505050565b61204c838383612105565b61210057600073ffffffffffffffffffffffffffffffffffffffff168373ffffffffffffffffffffffffffffffffffffffff16036120c157806040517f7e2732890000000000000000000000000000000000000000000000000000000081526004016120b891906124ae565b60405180910390fd5b81816040517f177e802f0000000000000000000000000000000000000000000000000000000081526004016120f7929190612d40565b60405180910390fd5b505050565b60008073ffffffffffffffffffffffffffffffffffffffff168373ffffffffffffffffffffffffffffffffffffffff16141580156121bd57508273ffffffffffffffffffffffffffffffffffffffff168473ffffffffffffffffffffffffffffffffffffffff16148061217e575061217d8484610eb4565b5b806121bc57508273ffffffffffffffffffffffffffffffffffffffff166121a48361116b565b73ffffffffffffffffffffffffffffffffffffffff16145b5b90509392505050565b6000604051905090565b600080fd5b600080fd5b60007fffffffff0000000000000000000000000000000000000000000000000000000082169050919050565b61220f816121da565b811461221a57600080fd5b50565b60008135905061222c81612206565b92915050565b600060208284031215612248576122476121d0565b5b60006122568482850161221d565b91505092915050565b60008115159050919050565b6122748161225f565b82525050565b600060208201905061228f600083018461226b565b92915050565b600081519050919050565b600082825260208201905092915050565b60005b838110156122cf5780820151818401526020810190506122b4565b60008484015250505050565b6000601f19601f8301169050919050565b60006122f782612295565b61230181856122a0565b93506123118185602086016122b1565b61231a816122db565b840191505092915050565b6000602082019050818103600083015261233f81846122ec565b905092915050565b6000819050919050565b61235a81612347565b811461236557600080fd5b50565b60008135905061237781612351565b92915050565b600060208284031215612393576123926121d0565b5b60006123a184828501612368565b91505092915050565b600073ffffffffffffffffffffffffffffffffffffffff82169050919050565b60006123d5826123aa565b9050919050565b6123e5816123ca565b82525050565b600060208201905061240060008301846123dc565b92915050565b61240f816123ca565b811461241a57600080fd5b50565b60008135905061242c81612406565b92915050565b60008060408385031215612449576124486121d0565b5b60006124578582860161241d565b925050602061246885828601612368565b9150509250929050565b600060208284031215612488576124876121d0565b5b60006124968482850161241d565b91505092915050565b6124a881612347565b82525050565b60006020820190506124c3600083018461249f565b92915050565b6000806000606084860312156124e2576124e16121d0565b5b60006124f08682870161241d565b93505060206125018682870161241d565b925050604061251286828701612368565b9150509250925092565b7f4e487b7100000000000000000000000000000000000000000000000000000000600052602160045260246000fd5b6003811061255c5761255b61251c565b5b50565b600081905061256d8261254b565b919050565b600061257d8261255f565b9050919050565b61258d81612572565b82525050565b60006020820190506125a86000830184612584565b92915050565b6125b78161225f565b81146125c257600080fd5b50565b6000813590506125d4816125ae565b92915050565b600080604083850312156125f1576125f06121d0565b5b60006125ff8582860161241d565b9250506020612610858286016125c5565b9150509250929050565b600080fd5b600080fd5b7f4e487b7100000000000000000000000000000000000000000000000000000000600052604160045260246000fd5b61265c826122db565b810181811067ffffffffffffffff8211171561267b5761267a612624565b5b80604052505050565b600061268e6121c6565b905061269a8282612653565b919050565b600067ffffffffffffffff8211156126ba576126b9612624565b5b6126c3826122db565b9050602081019050919050565b82818337600083830152505050565b60006126f26126ed8461269f565b612684565b90508281526020810184848401111561270e5761270d61261f565b5b6127198482856126d0565b509392505050565b600082601f8301126127365761273561261a565b5b81356127468482602086016126df565b91505092915050565b60008060008060808587031215612769576127686121d0565b5b60006127778782880161241d565b94505060206127888782880161241d565b935050604061279987828801612368565b925050606085013567ffffffffffffffff8111156127ba576127b96121d5565b5b6127c687828801612721565b91505092959194509250565b600080604083850312156127e9576127e86121d0565b5b60006127f78582860161241d565b92505060206128088582860161241d565b9150509250929050565b7f4e487b7100000000000000000000000000000000000000000000000000000000600052602260045260246000fd5b6000600282049050600182168061285957607f821691505b60208210810361286c5761286b612812565b5b50919050565b7f796f7520617265206e6f7420696e206c69737400000000000000000000000000600082015250565b60006128a86013836122a0565b91506128b382612872565b602082019050919050565b600060208201905081810360008301526128d78161289b565b9050919050565b60006060820190506128f360008301866123dc565b612900602083018561249f565b61290d60408301846123dc565b949350505050565b7f7072652053616c6520656e646564000000000000000000000000000000000000600082015250565b600061294b600e836122a0565b915061295682612915565b602082019050919050565b6000602082019050818103600083015261297a8161293e565b9050919050565b600081905092915050565b600061299782612295565b6129a18185612981565b93506129b18185602086016122b1565b80840191505092915050565b60006129c9828561298c565b91506129d5828461298c565b91508190509392505050565b7f7072652073616c6520656e646564206f72206e6f74207965742073746172746560008201527f6400000000000000000000000000000000000000000000000000000000000000602082015250565b6000612a3d6021836122a0565b9150612a48826129e1565b604082019050919050565b60006020820190508181036000830152612a6c81612a30565b9050919050565b7f6d617820737570706c7920726561636865640000000000000000000000000000600082015250565b6000612aa96012836122a0565b9150612ab482612a73565b602082019050919050565b60006020820190508181036000830152612ad881612a9c565b9050919050565b7f6e6f7420656e6f7567682066756e647300000000000000000000000000000000600082015250565b6000612b156010836122a0565b9150612b2082612adf565b602082019050919050565b60006020820190508181036000830152612b4481612b08565b9050919050565b7f6d696e74696e6720697320707268696269746564207269676874206e6f770000600082015250565b6000612b81601e836122a0565b9150612b8c82612b4b565b602082019050919050565b60006020820190508181036000830152612bb081612b74565b9050919050565b7f4e487b7100000000000000000000000000000000000000000000000000000000600052601160045260246000fd5b6000612bf182612347565b91507fffffffffffffffffffffffffffffffffffffffffffffffffffffffffffffffff8203612c2357612c22612bb7565b5b600182019050919050565b600081519050919050565b600082825260208201905092915050565b6000612c5582612c2e565b612c5f8185612c39565b9350612c6f8185602086016122b1565b612c78816122db565b840191505092915050565b6000608082019050612c9860008301876123dc565b612ca560208301866123dc565b612cb2604083018561249f565b8181036060830152612cc48184612c4a565b905095945050505050565b600081519050612cde81612206565b92915050565b600060208284031215612cfa57612cf96121d0565b5b6000612d0884828501612ccf565b91505092915050565b7f4e487b7100000000000000000000000000000000000000000000000000000000600052601260045260246000fd5b6000604082019050612d5560008301856123dc565b612d62602083018461249f565b939250505056fe68747470733a2f2f697066732e696f2f697066732f516d504d6334746342734d714c5275435174506d506538346270536a7243334b793774334a5775485859423461532fa264697066735822122019f8382fdad56c2b8c7b2bcc90f223634fec5574c78333fade3b273c30f2ea2f64736f6c63430008140033",
  "linkReferences": {},
  "deployedLinkReferences": {}
}