{
  "_format": "hh-sol-artifact-1",
  "contractName": "AmTek",
  "sourceName": "contracts/AmTek.sol",
  "abi": [
    {
      "inputs": [],
      "stateMutability": "nonpayable",
      "type": "constructor"
    },
    {
      "inputs": [
        {
          "internalType": "address",
          "name": "sender",
          "type": "address"
        },
        {
          "internalType": "uint256",
          "name": "tokenId",
          "type": "uint256"
        },
        {
          "internalType": "address",
          "name": "owner",
          "type": "address"
        }
      ],
      "name": "ERC721IncorrectOwner",
      "type": "error"
    },
    {
      "inputs": [
        {
          "internalType": "address",
          "name": "operator",
          "type": "address"
        },
        {
          "internalType": "uint256",
          "name": "tokenId",
          "type": "uint256"
        }
      ],
      "name": "ERC721InsufficientApproval",
      "type": "error"
    },
    {
      "inputs": [
        {
          "internalType": "address",
          "name": "approver",
          "type": "address"
        }
      ],
      "name": "ERC721InvalidApprover",
      "type": "error"
    },
    {
      "inputs": [
        {
          "internalType": "address",
          "name": "operator",
          "type": "address"
        }
      ],
      "name": "ERC721InvalidOperator",
      "type": "error"
    },
    {
      "inputs": [
        {
          "internalType": "address",
          "name": "owner",
          "type": "address"
        }
      ],
      "name": "ERC721InvalidOwner",
      "type": "error"
    },
    {
      "inputs": [
        {
          "internalType": "address",
          "name": "receiver",
          "type": "address"
        }
      ],
      "name": "ERC721InvalidReceiver",
      "type": "error"
    },
    {
      "inputs": [
        {
          "internalType": "address",
          "name": "sender",
          "type": "address"
        }
      ],
      "name": "ERC721InvalidSender",
      "type": "error"
    },
    {
      "inputs": [
        {
          "internalType": "uint256",
          "name": "tokenId",
          "type": "uint256"
        }
      ],
      "name": "ERC721NonexistentToken",
      "type": "error"
    },
    {
      "inputs": [],
      "name": "EnforcedPause",
      "type": "error"
    },
    {
      "inputs": [],
      "name": "ExpectedPause",
      "type": "error"
    },
    {
      "inputs": [
        {
          "internalType": "address",
          "name": "owner",
          "type": "address"
        }
      ],
      "name": "OwnableInvalidOwner",
      "type": "error"
    },
    {
      "inputs": [
        {
          "internalType": "address",
          "name": "account",
          "type": "address"
        }
      ],
      "name": "OwnableUnauthorizedAccount",
      "type": "error"
    },
    {
      "anonymous": false,
      "inputs": [
        {
          "indexed": true,
          "internalType": "address",
          "name": "owner",
          "type": "address"
        },
        {
          "indexed": true,
          "internalType": "address",
          "name": "approved",
          "type": "address"
        },
        {
          "indexed": true,
          "internalType": "uint256",
          "name": "tokenId",
          "type": "uint256"
        }
      ],
      "name": "Approval",
      "type": "event"
    },
    {
      "anonymous": false,
      "inputs": [
        {
          "indexed": true,
          "internalType": "address",
          "name": "owner",
          "type": "address"
        },
        {
          "indexed": true,
          "internalType": "address",
          "name": "operator",
          "type": "address"
        },
        {
          "indexed": false,
          "internalType": "bool",
          "name": "approved",
          "type": "bool"
        }
      ],
      "name": "ApprovalForAll",
      "type": "event"
    },
    {
      "anonymous": false,
      "inputs": [
        {
          "indexed": true,
          "internalType": "address",
          "name": "previousOwner",
          "type": "address"
        },
        {
          "indexed": true,
          "internalType": "address",
          "name": "newOwner",
          "type": "address"
        }
      ],
      "name": "OwnershipTransferred",
      "type": "event"
    },
    {
      "anonymous": false,
      "inputs": [
        {
          "indexed": false,
          "internalType": "address",
          "name": "account",
          "type": "address"
        }
      ],
      "name": "Paused",
      "type": "event"
    },
    {
      "anonymous": false,
      "inputs": [
        {
          "indexed": false,
          "internalType": "enum AmTek.preSale",
          "name": "",
          "type": "uint8"
        }
      ],
      "name": "PreSaleUpdate",
      "type": "event"
    },
    {
      "anonymous": false,
      "inputs": [
        {
          "indexed": false,
          "internalType": "uint256",
          "name": "",
          "type": "uint256"
        }
      ],
      "name": "PriceChange",
      "type": "event"
    },
    {
      "anonymous": false,
      "inputs": [
        {
          "indexed": true,
          "internalType": "address",
          "name": "from",
          "type": "address"
        },
        {
          "indexed": true,
          "internalType": "address",
          "name": "to",
          "type": "address"
        },
        {
          "indexed": true,
          "internalType": "uint256",
          "name": "tokenId",
          "type": "uint256"
        }
      ],
      "name": "Transfer",
      "type": "event"
    },
    {
      "anonymous": false,
      "inputs": [
        {
          "indexed": false,
          "internalType": "address",
          "name": "account",
          "type": "address"
        }
      ],
      "name": "Unpaused",
      "type": "event"
    },
    {
      "inputs": [
        {
          "internalType": "address",
          "name": "_peer",
          "type": "address"
        }
      ],
      "name": "addToSpecial",
      "outputs": [],
      "stateMutability": "nonpayable",
      "type": "function"
    },
    {
      "inputs": [
        {
          "internalType": "address",
          "name": "to",
          "type": "address"
        },
        {
          "internalType": "uint256",
          "name": "tokenId",
          "type": "uint256"
        }
      ],
      "name": "approve",
      "outputs": [],
      "stateMutability": "nonpayable",
      "type": "function"
    },
    {
      "inputs": [
        {
          "internalType": "address",
          "name": "owner",
          "type": "address"
        }
      ],
      "name": "balanceOf",
      "outputs": [
        {
          "internalType": "uint256",
          "name": "",
          "type": "uint256"
        }
      ],
      "stateMutability": "view",
      "type": "function"
    },
    {
      "inputs": [
        {
          "internalType": "uint256",
          "name": "tokenId",
          "type": "uint256"
        }
      ],
      "name": "burn",
      "outputs": [],
      "stateMutability": "nonpayable",
      "type": "function"
    },
    {
      "inputs": [
        {
          "internalType": "uint256",
          "name": "_price",
          "type": "uint256"
        }
      ],
      "name": "changePrice",
      "outputs": [],
      "stateMutability": "nonpayable",
      "type": "function"
    },
    {
      "inputs": [],
      "name": "endPreSale",
      "outputs": [],
      "stateMutability": "nonpayable",
      "type": "function"
    },
    {
      "inputs": [
        {
          "internalType": "uint256",
          "name": "tokenId",
          "type": "uint256"
        }
      ],
      "name": "getApproved",
      "outputs": [
        {
          "internalType": "address",
          "name": "",
          "type": "address"
        }
      ],
      "stateMutability": "view",
      "type": "function"
    },
    {
      "inputs": [
        {
          "internalType": "address",
          "name": "owner",
          "type": "address"
        },
        {
          "internalType": "address",
          "name": "operator",
          "type": "address"
        }
      ],
      "name": "isApprovedForAll",
      "outputs": [
        {
          "internalType": "bool",
          "name": "",
          "type": "bool"
        }
      ],
      "stateMutability": "view",
      "type": "function"
    },
    {
      "inputs": [],
      "name": "maxSupply",
      "outputs": [
        {
          "internalType": "uint256",
          "name": "",
          "type": "uint256"
        }
      ],
      "stateMutability": "view",
      "type": "function"
    },
    {
      "inputs": [],
      "name": "name",
      "outputs": [
        {
          "internalType": "string",
          "name": "",
          "type": "string"
        }
      ],
      "stateMutability": "view",
      "type": "function"
    },
    {
      "inputs": [],
      "name": "owner",
      "outputs": [
        {
          "internalType": "address",
          "name": "",
          "type": "address"
        }
      ],
      "stateMutability": "view",
      "type": "function"
    },
    {
      "inputs": [
        {
          "internalType": "uint256",
          "name": "tokenId",
          "type": "uint256"
        }
      ],
      "name": "ownerOf",
      "outputs": [
        {
          "internalType": "address",
          "name": "",
          "type": "address"
        }
      ],
      "stateMutability": "view",
      "type": "function"
    },
    {
      "inputs": [],
      "name": "pause",
      "outputs": [],
      "stateMutability": "nonpayable",
      "type": "function"
    },
    {
      "inputs": [],
      "name": "paused",
      "outputs": [
        {
          "internalType": "bool",
          "name": "",
          "type": "bool"
        }
      ],
      "stateMutability": "view",
      "type": "function"
    },
    {
      "inputs": [],
      "name": "publicMint",
      "outputs": [],
      "stateMutability": "payable",
      "type": "function"
    },
    {
      "inputs": [],
      "name": "renounceOwnership",
      "outputs": [],
      "stateMutability": "nonpayable",
      "type": "function"
    },
    {
      "inputs": [
        {
          "internalType": "address",
          "name": "from",
          "type": "address"
        },
        {
          "internalType": "address",
          "name": "to",
          "type": "address"
        },
        {
          "internalType": "uint256",
          "name": "tokenId",
          "type": "uint256"
        }
      ],
      "name": "safeTransferFrom",
      "outputs": [],
      "stateMutability": "nonpayable",
      "type": "function"
    },
    {
      "inputs": [
        {
          "internalType": "address",
          "name": "from",
          "type": "address"
        },
        {
          "internalType": "address",
          "name": "to",
          "type": "address"
        },
        {
          "internalType": "uint256",
          "name": "tokenId",
          "type": "uint256"
        },
        {
          "internalType": "bytes",
          "name": "data",
          "type": "bytes"
        }
      ],
      "name": "safeTransferFrom",
      "outputs": [],
      "stateMutability": "nonpayable",
      "type": "function"
    },
    {
      "inputs": [
        {
          "internalType": "address",
          "name": "operator",
          "type": "address"
        },
        {
          "internalType": "bool",
          "name": "approved",
          "type": "bool"
        }
      ],
      "name": "setApprovalForAll",
      "outputs": [],
      "stateMutability": "nonpayable",
      "type": "function"
    },
    {
      "inputs": [],
      "name": "specialMint",
      "outputs": [],
      "stateMutability": "payable",
      "type": "function"
    },
    {
      "inputs": [
        {
          "internalType": "address",
          "name": "",
          "type": "address"
        }
      ],
      "name": "specialPersons",
      "outputs": [
        {
          "internalType": "bool",
          "name": "",
          "type": "bool"
        }
      ],
      "stateMutability": "view",
      "type": "function"
    },
    {
      "inputs": [],
      "name": "startPreSale",
      "outputs": [],
      "stateMutability": "nonpayable",
      "type": "function"
    },
    {
      "inputs": [
        {
          "internalType": "bytes4",
          "name": "interfaceId",
          "type": "bytes4"
        }
      ],
      "name": "supportsInterface",
      "outputs": [
        {
          "internalType": "bool",
          "name": "",
          "type": "bool"
        }
      ],
      "stateMutability": "view",
      "type": "function"
    },
    {
      "inputs": [],
      "name": "symbol",
      "outputs": [
        {
          "internalType": "string",
          "name": "",
          "type": "string"
        }
      ],
      "stateMutability": "view",
      "type": "function"
    },
    {
      "inputs": [],
      "name": "tokenPreSale",
      "outputs": [
        {
          "internalType": "enum AmTek.preSale",
          "name": "",
          "type": "uint8"
        }
      ],
      "stateMutability": "view",
      "type": "function"
    },
    {
      "inputs": [
        {
          "internalType": "uint256",
          "name": "tokenId",
          "type": "uint256"
        }
      ],
      "name": "tokenURI",
      "outputs": [
        {
          "internalType": "string",
          "name": "",
          "type": "string"
        }
      ],
      "stateMutability": "view",
      "type": "function"
    },
    {
      "inputs": [],
      "name": "totalSupply",
      "outputs": [
        {
          "internalType": "uint256",
          "name": "",
          "type": "uint256"
        }
      ],
      "stateMutability": "view",
      "type": "function"
    },
    {
      "inputs": [
        {
          "internalType": "address",
          "name": "from",
          "type": "address"
        },
        {
          "internalType": "address",
          "name": "to",
          "type": "address"
        },
        {
          "internalType": "uint256",
          "name": "tokenId",
          "type": "uint256"
        }
      ],
      "name": "transferFrom",
      "outputs": [],
      "stateMutability": "nonpayable",
      "type": "function"
    },
    {
      "inputs": [
        {
          "internalType": "address",
          "name": "newOwner",
          "type": "address"
        }
      ],
      "name": "transferOwnership",
      "outputs": [],
      "stateMutability": "nonpayable",
      "type": "function"
    },
    {
      "inputs": [],
      "name": "unpause",
      "outputs": [],
      "stateMutability": "nonpayable",
      "type": "function"
    }
  ],
  "bytecode": "0x608060405266038d7ea4c680006008556000600960006101000a81548160ff021916908360028111156200003857620000376200024c565b5b02179055503480156200004a57600080fd5b50336040518060400160405280600581526020017f416d54656b0000000000000000000000000000000000000000000000000000008152506040518060400160405280600381526020017f4d544b00000000000000000000000000000000000000000000000000000000008152508160009081620000c99190620004f5565b508060019081620000db9190620004f5565b5050506000600660006101000a81548160ff021916908315150217905550600073ffffffffffffffffffffffffffffffffffffffff168173ffffffffffffffffffffffffffffffffffffffff16036200016e5760006040517f1e4fbdf700000000000000000000000000000000000000000000000000000000815260040162000165919062000621565b60405180910390fd5b6200017f816200018660201b60201c565b506200063e565b6000600660019054906101000a900473ffffffffffffffffffffffffffffffffffffffff16905081600660016101000a81548173ffffffffffffffffffffffffffffffffffffffff021916908373ffffffffffffffffffffffffffffffffffffffff1602179055508173ffffffffffffffffffffffffffffffffffffffff168173ffffffffffffffffffffffffffffffffffffffff167f8be0079c531659141344cd1fd0a4f28419497f9722a3daafe3b4186f6b6457e060405160405180910390a35050565b7f4e487b7100000000000000000000000000000000000000000000000000000000600052602160045260246000fd5b600081519050919050565b7f4e487b7100000000000000000000000000000000000000000000000000000000600052604160045260246000fd5b7f4e487b7100000000000000000000000000000000000000000000000000000000600052602260045260246000fd5b60006002820490506001821680620002fd57607f821691505b602082108103620003135762000312620002b5565b5b50919050565b60008190508160005260206000209050919050565b60006020601f8301049050919050565b600082821b905092915050565b6000600883026200037d7fffffffffffffffffffffffffffffffffffffffffffffffffffffffffffffffff826200033e565b6200038986836200033e565b95508019841693508086168417925050509392505050565b6000819050919050565b6000819050919050565b6000620003d6620003d0620003ca84620003a1565b620003ab565b620003a1565b9050919050565b6000819050919050565b620003f283620003b5565b6200040a6200040182620003dd565b8484546200034b565b825550505050565b600090565b6200042162000412565b6200042e818484620003e7565b505050565b5b8181101562000456576200044a60008262000417565b60018101905062000434565b5050565b601f821115620004a5576200046f8162000319565b6200047a846200032e565b810160208510156200048a578190505b620004a262000499856200032e565b83018262000433565b50505b505050565b600082821c905092915050565b6000620004ca60001984600802620004aa565b1980831691505092915050565b6000620004e58383620004b7565b9150826002028217905092915050565b62000500826200027b565b67ffffffffffffffff8111156200051c576200051b62000286565b5b620005288254620002e4565b620005358282856200045a565b600060209050601f8311600181146200056d576000841562000558578287015190505b620005648582620004d7565b865550620005d4565b601f1984166200057d8662000319565b60005b82811015620005a75784890151825560018201915060208501945060208101905062000580565b86831015620005c75784890151620005c3601f891682620004b7565b8355505b6001600288020188555050505b505050505050565b600073ffffffffffffffffffffffffffffffffffffffff82169050919050565b60006200060982620005dc565b9050919050565b6200061b81620005fc565b82525050565b600060208201905062000638600083018462000610565b92915050565b612ea6806200064e6000396000f3fe6080604052600436106101cd5760003560e01c80636352211e116100f7578063a22cb46511610095578063d5abeb0111610064578063d5abeb01146105fa578063e985e9c514610625578063ee889ed014610662578063f2fde38b14610679576101cd565b8063a22cb46514610542578063a2b40d191461056b578063b88d4fde14610594578063c87b56dd146105bd576101cd565b80638456cb59116100d15780638456cb59146104aa5780638c1e21da146104c15780638da5cb5b146104ec57806395d89b4114610517576101cd565b80636352211e1461041957806370a0823114610456578063715018a614610493576101cd565b806323b872dd1161016f57806342966c681161013e57806342966c681461037157806355dd574c1461039a5780635c975abb146103b15780635da5d29d146103dc576101cd565b806323b872dd146102fe57806326092b83146103275780633f4ba83a1461033157806342842e0e14610348576101cd565b8063095ea7b3116101ab578063095ea7b314610277578063096b02cc146102a05780630f017a61146102c957806318160ddd146102d3576101cd565b806301ffc9a7146101d257806306fdde031461020f578063081812fc1461023a575b600080fd5b3480156101de57600080fd5b506101f960048036038101906101f491906122f5565b6106a2565b604051610206919061233d565b60405180910390f35b34801561021b57600080fd5b50610224610784565b60405161023191906123e8565b60405180910390f35b34801561024657600080fd5b50610261600480360381019061025c9190612440565b610816565b60405161026e91906124ae565b60405180910390f35b34801561028357600080fd5b5061029e600480360381019061029991906124f5565b610832565b005b3480156102ac57600080fd5b506102c760048036038101906102c29190612535565b610848565b005b6102d16108ab565b005b3480156102df57600080fd5b506102e86109a2565b6040516102f59190612571565b60405180910390f35b34801561030a57600080fd5b506103256004803603810190610320919061258c565b6109ac565b005b61032f610aae565b005b34801561033d57600080fd5b50610346610b14565b005b34801561035457600080fd5b5061036f600480360381019061036a919061258c565b610b26565b005b34801561037d57600080fd5b5061039860048036038101906103939190612440565b610b46565b005b3480156103a657600080fd5b506103af610b5d565b005b3480156103bd57600080fd5b506103c6610c4e565b6040516103d3919061233d565b60405180910390f35b3480156103e857600080fd5b5061040360048036038101906103fe9190612535565b610c65565b604051610410919061233d565b60405180910390f35b34801561042557600080fd5b50610440600480360381019061043b9190612440565b610c85565b60405161044d91906124ae565b60405180910390f35b34801561046257600080fd5b5061047d60048036038101906104789190612535565b610c97565b60405161048a9190612571565b60405180910390f35b34801561049f57600080fd5b506104a8610d51565b005b3480156104b657600080fd5b506104bf610d65565b005b3480156104cd57600080fd5b506104d6610d77565b6040516104e39190612656565b60405180910390f35b3480156104f857600080fd5b50610501610d8a565b60405161050e91906124ae565b60405180910390f35b34801561052357600080fd5b5061052c610db4565b60405161053991906123e8565b60405180910390f35b34801561054e57600080fd5b506105696004803603810190610564919061269d565b610e46565b005b34801561057757600080fd5b50610592600480360381019061058d9190612440565b610e5c565b005b3480156105a057600080fd5b506105bb60048036038101906105b69190612812565b610ea5565b005b3480156105c957600080fd5b506105e460048036038101906105df9190612440565b610ec2565b6040516105f191906123e8565b60405180910390f35b34801561060657600080fd5b5061060f610f2b565b60405161061c9190612571565b60405180910390f35b34801561063157600080fd5b5061064c60048036038101906106479190612895565b610f31565b604051610659919061233d565b60405180910390f35b34801561066e57600080fd5b50610677610fc5565b005b34801561068557600080fd5b506106a0600480360381019061069b9190612535565b6110b6565b005b60007f80ac58cd000000000000000000000000000000000000000000000000000000007bffffffffffffffffffffffffffffffffffffffffffffffffffffffff1916827bffffffffffffffffffffffffffffffffffffffffffffffffffffffff1916148061076d57507f5b5e139f000000000000000000000000000000000000000000000000000000007bffffffffffffffffffffffffffffffffffffffffffffffffffffffff1916827bffffffffffffffffffffffffffffffffffffffffffffffffffffffff1916145b8061077d575061077c8261113c565b5b9050919050565b60606000805461079390612904565b80601f01602080910402602001604051908101604052809291908181526020018280546107bf90612904565b801561080c5780601f106107e15761010080835404028352916020019161080c565b820191906000526020600020905b8154815290600101906020018083116107ef57829003601f168201915b5050505050905090565b6000610821826111a6565b5061082b8261122e565b9050919050565b610844828261083f61126b565b611273565b5050565b610850611285565b6001600a60008373ffffffffffffffffffffffffffffffffffffffff1673ffffffffffffffffffffffffffffffffffffffff16815260200190815260200160002060006101000a81548160ff02191690831515021790555050565b600a60003373ffffffffffffffffffffffffffffffffffffffff1673ffffffffffffffffffffffffffffffffffffffff16815260200190815260200160002060009054906101000a900460ff16610937576040517f08c379a000000000000000000000000000000000000000000000000000000000815260040161092e90612981565b60405180910390fd5b6000600a60003373ffffffffffffffffffffffffffffffffffffffff1673ffffffffffffffffffffffffffffffffffffffff16815260200190815260200160002060006101000a81548160ff0219169083151502179055506109a034660110d9316ec00061130c565b565b6000600754905090565b600073ffffffffffffffffffffffffffffffffffffffff168273ffffffffffffffffffffffffffffffffffffffff1603610a1e5760006040517f64a0ae92000000000000000000000000000000000000000000000000000000008152600401610a1591906124ae565b60405180910390fd5b6000610a328383610a2d61126b565b61140d565b90508373ffffffffffffffffffffffffffffffffffffffff168173ffffffffffffffffffffffffffffffffffffffff1614610aa8578382826040517f64283d7b000000000000000000000000000000000000000000000000000000008152600401610a9f939291906129a1565b60405180910390fd5b50505050565b6000660119f17fe16000905060016002811115610ace57610acd6125df565b5b600960009054906101000a900460ff166002811115610af057610aef6125df565b5b03610b0457610aff348261130c565b610b11565b610b103460085461130c565b5b50565b610b1c611285565b610b24611423565b565b610b4183838360405180602001604052806000815250610ea5565b505050565b610b59600082610b5461126b565b61140d565b5050565b610b65611285565b60006002811115610b7957610b786125df565b5b600960009054906101000a900460ff166002811115610b9b57610b9a6125df565b5b14610bdb576040517f08c379a0000000000000000000000000000000000000000000000000000000008152600401610bd290612a24565b60405180910390fd5b6001600960006101000a81548160ff02191690836002811115610c0157610c006125df565b5b02179055507f21552c76d628c7fccda9b8518b701cf2c4b17da6949aa77dbe8e58b26d1eeca9600960009054906101000a900460ff16604051610c449190612656565b60405180910390a1565b6000600660009054906101000a900460ff16905090565b600a6020528060005260406000206000915054906101000a900460ff1681565b6000610c90826111a6565b9050919050565b60008073ffffffffffffffffffffffffffffffffffffffff168273ffffffffffffffffffffffffffffffffffffffff1603610d0a5760006040517f89c62b64000000000000000000000000000000000000000000000000000000008152600401610d0191906124ae565b60405180910390fd5b600360008373ffffffffffffffffffffffffffffffffffffffff1673ffffffffffffffffffffffffffffffffffffffff168152602001908152602001600020549050919050565b610d59611285565b610d636000611486565b565b610d6d611285565b610d7561154c565b565b600960009054906101000a900460ff1681565b6000600660019054906101000a900473ffffffffffffffffffffffffffffffffffffffff16905090565b606060018054610dc390612904565b80601f0160208091040260200160405190810160405280929190818152602001828054610def90612904565b8015610e3c5780601f10610e1157610100808354040283529160200191610e3c565b820191906000526020600020905b815481529060010190602001808311610e1f57829003601f168201915b5050505050905090565b610e58610e5161126b565b83836115af565b5050565b610e64611285565b806008819055507ff347ee99503bf19c028bd6b18f3c676e82a9bb5b2bb5225aebe0fd62fd6a0d1981604051610e9a9190612571565b60405180910390a150565b610eb08484846109ac565b610ebc8484848461171e565b50505050565b6060610ecd826111a6565b506000610ed86118d5565b90506000815111610ef85760405180602001604052806000815250610f23565b80610f02846118f5565b604051602001610f13929190612a80565b6040516020818303038152906040525b915050919050565b61270e81565b6000600560008473ffffffffffffffffffffffffffffffffffffffff1673ffffffffffffffffffffffffffffffffffffffff16815260200190815260200160002060008373ffffffffffffffffffffffffffffffffffffffff1673ffffffffffffffffffffffffffffffffffffffff16815260200190815260200160002060009054906101000a900460ff16905092915050565b610fcd611285565b60016002811115610fe157610fe06125df565b5b600960009054906101000a900460ff166002811115611003576110026125df565b5b14611043576040517f08c379a000000000000000000000000000000000000000000000000000000000815260040161103a90612b16565b60405180910390fd5b6002600960006101000a81548160ff02191690836002811115611069576110686125df565b5b02179055507f21552c76d628c7fccda9b8518b701cf2c4b17da6949aa77dbe8e58b26d1eeca9600960009054906101000a900460ff166040516110ac9190612656565b60405180910390a1565b6110be611285565b600073ffffffffffffffffffffffffffffffffffffffff168173ffffffffffffffffffffffffffffffffffffffff16036111305760006040517f1e4fbdf700000000000000000000000000000000000000000000000000000000815260040161112791906124ae565b60405180910390fd5b61113981611486565b50565b60007f01ffc9a7000000000000000000000000000000000000000000000000000000007bffffffffffffffffffffffffffffffffffffffffffffffffffffffff1916827bffffffffffffffffffffffffffffffffffffffffffffffffffffffff1916149050919050565b6000806111b2836119c3565b9050600073ffffffffffffffffffffffffffffffffffffffff168173ffffffffffffffffffffffffffffffffffffffff160361122557826040517f7e27328900000000000000000000000000000000000000000000000000000000815260040161121c9190612571565b60405180910390fd5b80915050919050565b60006004600083815260200190815260200160002060009054906101000a900473ffffffffffffffffffffffffffffffffffffffff169050919050565b600033905090565b6112808383836001611a00565b505050565b61128d61126b565b73ffffffffffffffffffffffffffffffffffffffff166112ab610d8a565b73ffffffffffffffffffffffffffffffffffffffff161461130a576112ce61126b565b6040517f118cdaa700000000000000000000000000000000000000000000000000000000815260040161130191906124ae565b60405180910390fd5b565b60075461270e11611352576040517f08c379a000000000000000000000000000000000000000000000000000000000815260040161134990612b82565b60405180910390fd5b80821015611395576040517f08c379a000000000000000000000000000000000000000000000000000000000815260040161138c90612bee565b60405180910390fd5b600015156113a1610c4e565b1515146113e3576040517f08c379a00000000000000000000000000000000000000000000000000000000081526004016113da90612c5a565b60405180910390fd5b6000600760008154809291906113f890612ca9565b9190505590506114083382611bc5565b505050565b600061141a848484611be3565b90509392505050565b61142b611c01565b6000600660006101000a81548160ff0219169083151502179055507f5db9ee0a495bf2e6ff9c91a7834c1ba4fdd244a5e8aa4e537bd38aeae4b073aa61146f61126b565b60405161147c91906124ae565b60405180910390a1565b6000600660019054906101000a900473ffffffffffffffffffffffffffffffffffffffff16905081600660016101000a81548173ffffffffffffffffffffffffffffffffffffffff021916908373ffffffffffffffffffffffffffffffffffffffff1602179055508173ffffffffffffffffffffffffffffffffffffffff168173ffffffffffffffffffffffffffffffffffffffff167f8be0079c531659141344cd1fd0a4f28419497f9722a3daafe3b4186f6b6457e060405160405180910390a35050565b611554611c41565b6001600660006101000a81548160ff0219169083151502179055507f62e78cea01bee320cd4e420270b5ea74000d11b0c9f74754ebdbfc544b05a25861159861126b565b6040516115a591906124ae565b60405180910390a1565b600073ffffffffffffffffffffffffffffffffffffffff168273ffffffffffffffffffffffffffffffffffffffff160361162057816040517f5b08ba1800000000000000000000000000000000000000000000000000000000815260040161161791906124ae565b60405180910390fd5b80600560008573ffffffffffffffffffffffffffffffffffffffff1673ffffffffffffffffffffffffffffffffffffffff16815260200190815260200160002060008473ffffffffffffffffffffffffffffffffffffffff1673ffffffffffffffffffffffffffffffffffffffff16815260200190815260200160002060006101000a81548160ff0219169083151502179055508173ffffffffffffffffffffffffffffffffffffffff168373ffffffffffffffffffffffffffffffffffffffff167f17307eab39ab6107e8899845ad3d59bd9653f200f220920489ca2b5937696c3183604051611711919061233d565b60405180910390a3505050565b60008373ffffffffffffffffffffffffffffffffffffffff163b11156118cf578273ffffffffffffffffffffffffffffffffffffffff1663150b7a0261176261126b565b8685856040518563ffffffff1660e01b81526004016117849493929190612d46565b6020604051808303816000875af19250505080156117c057506040513d601f19601f820116820180604052508101906117bd9190612da7565b60015b611844573d80600081146117f0576040519150601f19603f3d011682016040523d82523d6000602084013e6117f5565b606091505b50600081510361183c57836040517f64a0ae9200000000000000000000000000000000000000000000000000000000815260040161183391906124ae565b60405180910390fd5b805181602001fd5b63150b7a0260e01b7bffffffffffffffffffffffffffffffffffffffffffffffffffffffff1916817bffffffffffffffffffffffffffffffffffffffffffffffffffffffff1916146118cd57836040517f64a0ae920000000000000000000000000000000000000000000000000000000081526004016118c491906124ae565b60405180910390fd5b505b50505050565b6060604051806080016040528060448152602001612e2d60449139905090565b60606000600161190484611c82565b01905060008167ffffffffffffffff811115611923576119226126e7565b5b6040519080825280601f01601f1916602001820160405280156119555781602001600182028036833780820191505090505b509050600082602001820190505b6001156119b8578080600190039150507f3031323334353637383961626364656600000000000000000000000000000000600a86061a8153600a85816119ac576119ab612dd4565b5b04945060008503611963575b819350505050919050565b60006002600083815260200190815260200160002060009054906101000a900473ffffffffffffffffffffffffffffffffffffffff169050919050565b8080611a395750600073ffffffffffffffffffffffffffffffffffffffff168273ffffffffffffffffffffffffffffffffffffffff1614155b15611b6d576000611a49846111a6565b9050600073ffffffffffffffffffffffffffffffffffffffff168373ffffffffffffffffffffffffffffffffffffffff1614158015611ab457508273ffffffffffffffffffffffffffffffffffffffff168173ffffffffffffffffffffffffffffffffffffffff1614155b8015611ac75750611ac58184610f31565b155b15611b0957826040517fa9fbf51f000000000000000000000000000000000000000000000000000000008152600401611b0091906124ae565b60405180910390fd5b8115611b6b57838573ffffffffffffffffffffffffffffffffffffffff168273ffffffffffffffffffffffffffffffffffffffff167f8c5be1e5ebec7d5bd14f71427d1e84f3dd0314c0f7b2291e5b200ac8c7c3b92560405160405180910390a45b505b836004600085815260200190815260200160002060006101000a81548173ffffffffffffffffffffffffffffffffffffffff021916908373ffffffffffffffffffffffffffffffffffffffff16021790555050505050565b611bdf828260405180602001604052806000815250611dd5565b5050565b6000611bed611c41565b611bf8848484611df1565b90509392505050565b611c09610c4e565b611c3f576040517f8dfc202b00000000000000000000000000000000000000000000000000000000815260040160405180910390fd5b565b611c49610c4e565b15611c80576040517fd93c066500000000000000000000000000000000000000000000000000000000815260040160405180910390fd5b565b600080600090507a184f03e93ff9f4daa797ed6e38ed64bf6a1f0100000000000000008310611ce0577a184f03e93ff9f4daa797ed6e38ed64bf6a1f0100000000000000008381611cd657611cd5612dd4565b5b0492506040810190505b6d04ee2d6d415b85acef81000000008310611d1d576d04ee2d6d415b85acef81000000008381611d1357611d12612dd4565b5b0492506020810190505b662386f26fc100008310611d4c57662386f26fc100008381611d4257611d41612dd4565b5b0492506010810190505b6305f5e1008310611d75576305f5e1008381611d6b57611d6a612dd4565b5b0492506008810190505b6127108310611d9a576127108381611d9057611d8f612dd4565b5b0492506004810190505b60648310611dbd5760648381611db357611db2612dd4565b5b0492506002810190505b600a8310611dcc576001810190505b80915050919050565b611ddf838361200b565b611dec600084848461171e565b505050565b600080611dfd846119c3565b9050600073ffffffffffffffffffffffffffffffffffffffff168373ffffffffffffffffffffffffffffffffffffffff1614611e3f57611e3e818486612104565b5b600073ffffffffffffffffffffffffffffffffffffffff168173ffffffffffffffffffffffffffffffffffffffff1614611ed057611e81600085600080611a00565b6001600360008373ffffffffffffffffffffffffffffffffffffffff1673ffffffffffffffffffffffffffffffffffffffff168152602001908152602001600020600082825403925050819055505b600073ffffffffffffffffffffffffffffffffffffffff168573ffffffffffffffffffffffffffffffffffffffff1614611f53576001600360008773ffffffffffffffffffffffffffffffffffffffff1673ffffffffffffffffffffffffffffffffffffffff168152602001908152602001600020600082825401925050819055505b846002600086815260200190815260200160002060006101000a81548173ffffffffffffffffffffffffffffffffffffffff021916908373ffffffffffffffffffffffffffffffffffffffff160217905550838573ffffffffffffffffffffffffffffffffffffffff168273ffffffffffffffffffffffffffffffffffffffff167fddf252ad1be2c89b69c2b068fc378daa952ba7f163c4a11628f55a4df523b3ef60405160405180910390a4809150509392505050565b600073ffffffffffffffffffffffffffffffffffffffff168273ffffffffffffffffffffffffffffffffffffffff160361207d5760006040517f64a0ae9200000000000000000000000000000000000000000000000000000000815260040161207491906124ae565b60405180910390fd5b600061208b8383600061140d565b9050600073ffffffffffffffffffffffffffffffffffffffff168173ffffffffffffffffffffffffffffffffffffffff16146120ff5760006040517f73c6ac6e0000000000000000000000000000000000000000000000000000000081526004016120f691906124ae565b60405180910390fd5b505050565b61210f8383836121c8565b6121c357600073ffffffffffffffffffffffffffffffffffffffff168373ffffffffffffffffffffffffffffffffffffffff160361218457806040517f7e27328900000000000000000000000000000000000000000000000000000000815260040161217b9190612571565b60405180910390fd5b81816040517f177e802f0000000000000000000000000000000000000000000000000000000081526004016121ba929190612e03565b60405180910390fd5b505050565b60008073ffffffffffffffffffffffffffffffffffffffff168373ffffffffffffffffffffffffffffffffffffffff161415801561228057508273ffffffffffffffffffffffffffffffffffffffff168473ffffffffffffffffffffffffffffffffffffffff16148061224157506122408484610f31565b5b8061227f57508273ffffffffffffffffffffffffffffffffffffffff166122678361122e565b73ffffffffffffffffffffffffffffffffffffffff16145b5b90509392505050565b6000604051905090565b600080fd5b600080fd5b60007fffffffff0000000000000000000000000000000000000000000000000000000082169050919050565b6122d28161229d565b81146122dd57600080fd5b50565b6000813590506122ef816122c9565b92915050565b60006020828403121561230b5761230a612293565b5b6000612319848285016122e0565b91505092915050565b60008115159050919050565b61233781612322565b82525050565b6000602082019050612352600083018461232e565b92915050565b600081519050919050565b600082825260208201905092915050565b60005b83811015612392578082015181840152602081019050612377565b60008484015250505050565b6000601f19601f8301169050919050565b60006123ba82612358565b6123c48185612363565b93506123d4818560208601612374565b6123dd8161239e565b840191505092915050565b6000602082019050818103600083015261240281846123af565b905092915050565b6000819050919050565b61241d8161240a565b811461242857600080fd5b50565b60008135905061243a81612414565b92915050565b60006020828403121561245657612455612293565b5b60006124648482850161242b565b91505092915050565b600073ffffffffffffffffffffffffffffffffffffffff82169050919050565b60006124988261246d565b9050919050565b6124a88161248d565b82525050565b60006020820190506124c3600083018461249f565b92915050565b6124d28161248d565b81146124dd57600080fd5b50565b6000813590506124ef816124c9565b92915050565b6000806040838503121561250c5761250b612293565b5b600061251a858286016124e0565b925050602061252b8582860161242b565b9150509250929050565b60006020828403121561254b5761254a612293565b5b6000612559848285016124e0565b91505092915050565b61256b8161240a565b82525050565b60006020820190506125866000830184612562565b92915050565b6000806000606084860312156125a5576125a4612293565b5b60006125b3868287016124e0565b93505060206125c4868287016124e0565b92505060406125d58682870161242b565b9150509250925092565b7f4e487b7100000000000000000000000000000000000000000000000000000000600052602160045260246000fd5b6003811061261f5761261e6125df565b5b50565b60008190506126308261260e565b919050565b600061264082612622565b9050919050565b61265081612635565b82525050565b600060208201905061266b6000830184612647565b92915050565b61267a81612322565b811461268557600080fd5b50565b60008135905061269781612671565b92915050565b600080604083850312156126b4576126b3612293565b5b60006126c2858286016124e0565b92505060206126d385828601612688565b9150509250929050565b600080fd5b600080fd5b7f4e487b7100000000000000000000000000000000000000000000000000000000600052604160045260246000fd5b61271f8261239e565b810181811067ffffffffffffffff8211171561273e5761273d6126e7565b5b80604052505050565b6000612751612289565b905061275d8282612716565b919050565b600067ffffffffffffffff82111561277d5761277c6126e7565b5b6127868261239e565b9050602081019050919050565b82818337600083830152505050565b60006127b56127b084612762565b612747565b9050828152602081018484840111156127d1576127d06126e2565b5b6127dc848285612793565b509392505050565b600082601f8301126127f9576127f86126dd565b5b81356128098482602086016127a2565b91505092915050565b6000806000806080858703121561282c5761282b612293565b5b600061283a878288016124e0565b945050602061284b878288016124e0565b935050604061285c8782880161242b565b925050606085013567ffffffffffffffff81111561287d5761287c612298565b5b612889878288016127e4565b91505092959194509250565b600080604083850312156128ac576128ab612293565b5b60006128ba858286016124e0565b92505060206128cb858286016124e0565b9150509250929050565b7f4e487b7100000000000000000000000000000000000000000000000000000000600052602260045260246000fd5b6000600282049050600182168061291c57607f821691505b60208210810361292f5761292e6128d5565b5b50919050565b7f796f7520617265206e6f7420696e206c69737400000000000000000000000000600082015250565b600061296b601383612363565b915061297682612935565b602082019050919050565b6000602082019050818103600083015261299a8161295e565b9050919050565b60006060820190506129b6600083018661249f565b6129c36020830185612562565b6129d0604083018461249f565b949350505050565b7f7072652053616c6520656e646564000000000000000000000000000000000000600082015250565b6000612a0e600e83612363565b9150612a19826129d8565b602082019050919050565b60006020820190508181036000830152612a3d81612a01565b9050919050565b600081905092915050565b6000612a5a82612358565b612a648185612a44565b9350612a74818560208601612374565b80840191505092915050565b6000612a8c8285612a4f565b9150612a988284612a4f565b91508190509392505050565b7f7072652073616c6520656e646564206f72206e6f74207965742073746172746560008201527f6400000000000000000000000000000000000000000000000000000000000000602082015250565b6000612b00602183612363565b9150612b0b82612aa4565b604082019050919050565b60006020820190508181036000830152612b2f81612af3565b9050919050565b7f6d617820737570706c7920726561636865640000000000000000000000000000600082015250565b6000612b6c601283612363565b9150612b7782612b36565b602082019050919050565b60006020820190508181036000830152612b9b81612b5f565b9050919050565b7f6e6f7420656e6f7567682066756e647300000000000000000000000000000000600082015250565b6000612bd8601083612363565b9150612be382612ba2565b602082019050919050565b60006020820190508181036000830152612c0781612bcb565b9050919050565b7f6d696e74696e6720697320707268696269746564207269676874206e6f770000600082015250565b6000612c44601e83612363565b9150612c4f82612c0e565b602082019050919050565b60006020820190508181036000830152612c7381612c37565b9050919050565b7f4e487b7100000000000000000000000000000000000000000000000000000000600052601160045260246000fd5b6000612cb48261240a565b91507fffffffffffffffffffffffffffffffffffffffffffffffffffffffffffffffff8203612ce657612ce5612c7a565b5b600182019050919050565b600081519050919050565b600082825260208201905092915050565b6000612d1882612cf1565b612d228185612cfc565b9350612d32818560208601612374565b612d3b8161239e565b840191505092915050565b6000608082019050612d5b600083018761249f565b612d68602083018661249f565b612d756040830185612562565b8181036060830152612d878184612d0d565b905095945050505050565b600081519050612da1816122c9565b92915050565b600060208284031215612dbd57612dbc612293565b5b6000612dcb84828501612d92565b91505092915050565b7f4e487b7100000000000000000000000000000000000000000000000000000000600052601260045260246000fd5b6000604082019050612e18600083018561249f565b612e256020830184612562565b939250505056fe68747470733a2f2f697066732e696f2f697066732f516d504d6334746342734d714c5275435174506d506538346270536a7243334b793774334a5775485859423461532fa2646970667358221220f886de14f1303ff31da1e88405c9903392ad418413497aaf5c1829820c62872d64736f6c63430008140033",
  "linkReferences": {},
  "deployedLinkReferences": {}
}