{
  "_format": "hh-sol-artifact-1",
  "contractName": "AmTek",
  "sourceName": "contracts/AmTek.sol",
  "abi": [
    {
      "inputs": [],
      "stateMutability": "nonpayable",
      "type": "constructor"
    },
    {
      "inputs": [
        {
          "internalType": "address",
          "name": "sender",
          "type": "address"
        },
        {
          "internalType": "uint256",
          "name": "tokenId",
          "type": "uint256"
        },
        {
          "internalType": "address",
          "name": "owner",
          "type": "address"
        }
      ],
      "name": "ERC721IncorrectOwner",
      "type": "error"
    },
    {
      "inputs": [
        {
          "internalType": "address",
          "name": "operator",
          "type": "address"
        },
        {
          "internalType": "uint256",
          "name": "tokenId",
          "type": "uint256"
        }
      ],
      "name": "ERC721InsufficientApproval",
      "type": "error"
    },
    {
      "inputs": [
        {
          "internalType": "address",
          "name": "approver",
          "type": "address"
        }
      ],
      "name": "ERC721InvalidApprover",
      "type": "error"
    },
    {
      "inputs": [
        {
          "internalType": "address",
          "name": "operator",
          "type": "address"
        }
      ],
      "name": "ERC721InvalidOperator",
      "type": "error"
    },
    {
      "inputs": [
        {
          "internalType": "address",
          "name": "owner",
          "type": "address"
        }
      ],
      "name": "ERC721InvalidOwner",
      "type": "error"
    },
    {
      "inputs": [
        {
          "internalType": "address",
          "name": "receiver",
          "type": "address"
        }
      ],
      "name": "ERC721InvalidReceiver",
      "type": "error"
    },
    {
      "inputs": [
        {
          "internalType": "address",
          "name": "sender",
          "type": "address"
        }
      ],
      "name": "ERC721InvalidSender",
      "type": "error"
    },
    {
      "inputs": [
        {
          "internalType": "uint256",
          "name": "tokenId",
          "type": "uint256"
        }
      ],
      "name": "ERC721NonexistentToken",
      "type": "error"
    },
    {
      "inputs": [],
      "name": "EnforcedPause",
      "type": "error"
    },
    {
      "inputs": [],
      "name": "ExpectedPause",
      "type": "error"
    },
    {
      "inputs": [
        {
          "internalType": "address",
          "name": "owner",
          "type": "address"
        }
      ],
      "name": "OwnableInvalidOwner",
      "type": "error"
    },
    {
      "inputs": [
        {
          "internalType": "address",
          "name": "account",
          "type": "address"
        }
      ],
      "name": "OwnableUnauthorizedAccount",
      "type": "error"
    },
    {
      "anonymous": false,
      "inputs": [
        {
          "indexed": true,
          "internalType": "address",
          "name": "owner",
          "type": "address"
        },
        {
          "indexed": true,
          "internalType": "address",
          "name": "approved",
          "type": "address"
        },
        {
          "indexed": true,
          "internalType": "uint256",
          "name": "tokenId",
          "type": "uint256"
        }
      ],
      "name": "Approval",
      "type": "event"
    },
    {
      "anonymous": false,
      "inputs": [
        {
          "indexed": true,
          "internalType": "address",
          "name": "owner",
          "type": "address"
        },
        {
          "indexed": true,
          "internalType": "address",
          "name": "operator",
          "type": "address"
        },
        {
          "indexed": false,
          "internalType": "bool",
          "name": "approved",
          "type": "bool"
        }
      ],
      "name": "ApprovalForAll",
      "type": "event"
    },
    {
      "anonymous": false,
      "inputs": [
        {
          "indexed": true,
          "internalType": "address",
          "name": "previousOwner",
          "type": "address"
        },
        {
          "indexed": true,
          "internalType": "address",
          "name": "newOwner",
          "type": "address"
        }
      ],
      "name": "OwnershipTransferred",
      "type": "event"
    },
    {
      "anonymous": false,
      "inputs": [
        {
          "indexed": false,
          "internalType": "address",
          "name": "account",
          "type": "address"
        }
      ],
      "name": "Paused",
      "type": "event"
    },
    {
      "anonymous": false,
      "inputs": [
        {
          "indexed": false,
          "internalType": "enum AmTek.preSale",
          "name": "",
          "type": "uint8"
        }
      ],
      "name": "PreSaleUpdate",
      "type": "event"
    },
    {
      "anonymous": false,
      "inputs": [
        {
          "indexed": false,
          "internalType": "uint256",
          "name": "",
          "type": "uint256"
        }
      ],
      "name": "PriceChange",
      "type": "event"
    },
    {
      "anonymous": false,
      "inputs": [
        {
          "indexed": true,
          "internalType": "address",
          "name": "from",
          "type": "address"
        },
        {
          "indexed": true,
          "internalType": "address",
          "name": "to",
          "type": "address"
        },
        {
          "indexed": true,
          "internalType": "uint256",
          "name": "tokenId",
          "type": "uint256"
        }
      ],
      "name": "Transfer",
      "type": "event"
    },
    {
      "anonymous": false,
      "inputs": [
        {
          "indexed": false,
          "internalType": "address",
          "name": "account",
          "type": "address"
        }
      ],
      "name": "Unpaused",
      "type": "event"
    },
    {
      "inputs": [
        {
          "internalType": "address",
          "name": "_peer",
          "type": "address"
        }
      ],
      "name": "addToSpecial",
      "outputs": [],
      "stateMutability": "nonpayable",
      "type": "function"
    },
    {
      "inputs": [
        {
          "internalType": "address",
          "name": "to",
          "type": "address"
        },
        {
          "internalType": "uint256",
          "name": "tokenId",
          "type": "uint256"
        }
      ],
      "name": "approve",
      "outputs": [],
      "stateMutability": "nonpayable",
      "type": "function"
    },
    {
      "inputs": [
        {
          "internalType": "address",
          "name": "owner",
          "type": "address"
        }
      ],
      "name": "balanceOf",
      "outputs": [
        {
          "internalType": "uint256",
          "name": "",
          "type": "uint256"
        }
      ],
      "stateMutability": "view",
      "type": "function"
    },
    {
      "inputs": [
        {
          "internalType": "uint256",
          "name": "tokenId",
          "type": "uint256"
        }
      ],
      "name": "burn",
      "outputs": [],
      "stateMutability": "nonpayable",
      "type": "function"
    },
    {
      "inputs": [
        {
          "internalType": "uint256",
          "name": "_price",
          "type": "uint256"
        }
      ],
      "name": "changePrice",
      "outputs": [],
      "stateMutability": "nonpayable",
      "type": "function"
    },
    {
      "inputs": [],
      "name": "endPreSale",
      "outputs": [],
      "stateMutability": "nonpayable",
      "type": "function"
    },
    {
      "inputs": [
        {
          "internalType": "uint256",
          "name": "tokenId",
          "type": "uint256"
        }
      ],
      "name": "getApproved",
      "outputs": [
        {
          "internalType": "address",
          "name": "",
          "type": "address"
        }
      ],
      "stateMutability": "view",
      "type": "function"
    },
    {
      "inputs": [],
      "name": "getUri",
      "outputs": [
        {
          "internalType": "string",
          "name": "",
          "type": "string"
        }
      ],
      "stateMutability": "pure",
      "type": "function"
    },
    {
      "inputs": [
        {
          "internalType": "address",
          "name": "owner",
          "type": "address"
        },
        {
          "internalType": "address",
          "name": "operator",
          "type": "address"
        }
      ],
      "name": "isApprovedForAll",
      "outputs": [
        {
          "internalType": "bool",
          "name": "",
          "type": "bool"
        }
      ],
      "stateMutability": "view",
      "type": "function"
    },
    {
      "inputs": [],
      "name": "maxSupply",
      "outputs": [
        {
          "internalType": "uint256",
          "name": "",
          "type": "uint256"
        }
      ],
      "stateMutability": "view",
      "type": "function"
    },
    {
      "inputs": [],
      "name": "name",
      "outputs": [
        {
          "internalType": "string",
          "name": "",
          "type": "string"
        }
      ],
      "stateMutability": "view",
      "type": "function"
    },
    {
      "inputs": [],
      "name": "nftPrice",
      "outputs": [
        {
          "internalType": "uint256",
          "name": "",
          "type": "uint256"
        }
      ],
      "stateMutability": "view",
      "type": "function"
    },
    {
      "inputs": [],
      "name": "owner",
      "outputs": [
        {
          "internalType": "address",
          "name": "",
          "type": "address"
        }
      ],
      "stateMutability": "view",
      "type": "function"
    },
    {
      "inputs": [
        {
          "internalType": "uint256",
          "name": "tokenId",
          "type": "uint256"
        }
      ],
      "name": "ownerOf",
      "outputs": [
        {
          "internalType": "address",
          "name": "",
          "type": "address"
        }
      ],
      "stateMutability": "view",
      "type": "function"
    },
    {
      "inputs": [],
      "name": "pause",
      "outputs": [],
      "stateMutability": "nonpayable",
      "type": "function"
    },
    {
      "inputs": [],
      "name": "paused",
      "outputs": [
        {
          "internalType": "bool",
          "name": "",
          "type": "bool"
        }
      ],
      "stateMutability": "view",
      "type": "function"
    },
    {
      "inputs": [],
      "name": "preSaleEndTime",
      "outputs": [
        {
          "internalType": "uint256",
          "name": "",
          "type": "uint256"
        }
      ],
      "stateMutability": "view",
      "type": "function"
    },
    {
      "inputs": [],
      "name": "publicMint",
      "outputs": [],
      "stateMutability": "payable",
      "type": "function"
    },
    {
      "inputs": [],
      "name": "renounceOwnership",
      "outputs": [],
      "stateMutability": "nonpayable",
      "type": "function"
    },
    {
      "inputs": [
        {
          "internalType": "address",
          "name": "from",
          "type": "address"
        },
        {
          "internalType": "address",
          "name": "to",
          "type": "address"
        },
        {
          "internalType": "uint256",
          "name": "tokenId",
          "type": "uint256"
        }
      ],
      "name": "safeTransferFrom",
      "outputs": [],
      "stateMutability": "nonpayable",
      "type": "function"
    },
    {
      "inputs": [
        {
          "internalType": "address",
          "name": "from",
          "type": "address"
        },
        {
          "internalType": "address",
          "name": "to",
          "type": "address"
        },
        {
          "internalType": "uint256",
          "name": "tokenId",
          "type": "uint256"
        },
        {
          "internalType": "bytes",
          "name": "data",
          "type": "bytes"
        }
      ],
      "name": "safeTransferFrom",
      "outputs": [],
      "stateMutability": "nonpayable",
      "type": "function"
    },
    {
      "inputs": [
        {
          "internalType": "uint256",
          "name": "_time",
          "type": "uint256"
        }
      ],
      "name": "schedulePreSale",
      "outputs": [],
      "stateMutability": "nonpayable",
      "type": "function"
    },
    {
      "inputs": [
        {
          "internalType": "address",
          "name": "operator",
          "type": "address"
        },
        {
          "internalType": "bool",
          "name": "approved",
          "type": "bool"
        }
      ],
      "name": "setApprovalForAll",
      "outputs": [],
      "stateMutability": "nonpayable",
      "type": "function"
    },
    {
      "inputs": [],
      "name": "specialMint",
      "outputs": [],
      "stateMutability": "payable",
      "type": "function"
    },
    {
      "inputs": [
        {
          "internalType": "address",
          "name": "",
          "type": "address"
        }
      ],
      "name": "specialPersons",
      "outputs": [
        {
          "internalType": "bool",
          "name": "",
          "type": "bool"
        }
      ],
      "stateMutability": "view",
      "type": "function"
    },
    {
      "inputs": [],
      "name": "startPreSale",
      "outputs": [],
      "stateMutability": "nonpayable",
      "type": "function"
    },
    {
      "inputs": [
        {
          "internalType": "bytes4",
          "name": "interfaceId",
          "type": "bytes4"
        }
      ],
      "name": "supportsInterface",
      "outputs": [
        {
          "internalType": "bool",
          "name": "",
          "type": "bool"
        }
      ],
      "stateMutability": "view",
      "type": "function"
    },
    {
      "inputs": [],
      "name": "symbol",
      "outputs": [
        {
          "internalType": "string",
          "name": "",
          "type": "string"
        }
      ],
      "stateMutability": "view",
      "type": "function"
    },
    {
      "inputs": [],
      "name": "tokenPreSale",
      "outputs": [
        {
          "internalType": "enum AmTek.preSale",
          "name": "",
          "type": "uint8"
        }
      ],
      "stateMutability": "view",
      "type": "function"
    },
    {
      "inputs": [
        {
          "internalType": "uint256",
          "name": "tokenId",
          "type": "uint256"
        }
      ],
      "name": "tokenURI",
      "outputs": [
        {
          "internalType": "string",
          "name": "",
          "type": "string"
        }
      ],
      "stateMutability": "view",
      "type": "function"
    },
    {
      "inputs": [],
      "name": "totalSupply",
      "outputs": [
        {
          "internalType": "uint256",
          "name": "",
          "type": "uint256"
        }
      ],
      "stateMutability": "view",
      "type": "function"
    },
    {
      "inputs": [
        {
          "internalType": "address",
          "name": "from",
          "type": "address"
        },
        {
          "internalType": "address",
          "name": "to",
          "type": "address"
        },
        {
          "internalType": "uint256",
          "name": "tokenId",
          "type": "uint256"
        }
      ],
      "name": "transferFrom",
      "outputs": [],
      "stateMutability": "nonpayable",
      "type": "function"
    },
    {
      "inputs": [
        {
          "internalType": "address",
          "name": "newOwner",
          "type": "address"
        }
      ],
      "name": "transferOwnership",
      "outputs": [],
      "stateMutability": "nonpayable",
      "type": "function"
    },
    {
      "inputs": [],
      "name": "unpause",
      "outputs": [],
      "stateMutability": "nonpayable",
      "type": "function"
    },
    {
      "inputs": [],
      "name": "withdrawBalance",
      "outputs": [],
      "stateMutability": "nonpayable",
      "type": "function"
    }
  ],
  "bytecode": "0x608060405266038d7ea4c680006008556000600a60006101000a81548160ff021916908360028111156200003857620000376200024c565b5b02179055503480156200004a57600080fd5b50336040518060400160405280600581526020017f416d54656b0000000000000000000000000000000000000000000000000000008152506040518060400160405280600381526020017f4d544b00000000000000000000000000000000000000000000000000000000008152508160009081620000c99190620004f5565b508060019081620000db9190620004f5565b5050506000600660006101000a81548160ff021916908315150217905550600073ffffffffffffffffffffffffffffffffffffffff168173ffffffffffffffffffffffffffffffffffffffff16036200016e5760006040517f1e4fbdf700000000000000000000000000000000000000000000000000000000815260040162000165919062000621565b60405180910390fd5b6200017f816200018660201b60201c565b506200063e565b6000600660019054906101000a900473ffffffffffffffffffffffffffffffffffffffff16905081600660016101000a81548173ffffffffffffffffffffffffffffffffffffffff021916908373ffffffffffffffffffffffffffffffffffffffff1602179055508173ffffffffffffffffffffffffffffffffffffffff168173ffffffffffffffffffffffffffffffffffffffff167f8be0079c531659141344cd1fd0a4f28419497f9722a3daafe3b4186f6b6457e060405160405180910390a35050565b7f4e487b7100000000000000000000000000000000000000000000000000000000600052602160045260246000fd5b600081519050919050565b7f4e487b7100000000000000000000000000000000000000000000000000000000600052604160045260246000fd5b7f4e487b7100000000000000000000000000000000000000000000000000000000600052602260045260246000fd5b60006002820490506001821680620002fd57607f821691505b602082108103620003135762000312620002b5565b5b50919050565b60008190508160005260206000209050919050565b60006020601f8301049050919050565b600082821b905092915050565b6000600883026200037d7fffffffffffffffffffffffffffffffffffffffffffffffffffffffffffffffff826200033e565b6200038986836200033e565b95508019841693508086168417925050509392505050565b6000819050919050565b6000819050919050565b6000620003d6620003d0620003ca84620003a1565b620003ab565b620003a1565b9050919050565b6000819050919050565b620003f283620003b5565b6200040a6200040182620003dd565b8484546200034b565b825550505050565b600090565b6200042162000412565b6200042e818484620003e7565b505050565b5b8181101562000456576200044a60008262000417565b60018101905062000434565b5050565b601f821115620004a5576200046f8162000319565b6200047a846200032e565b810160208510156200048a578190505b620004a262000499856200032e565b83018262000433565b50505b505050565b600082821c905092915050565b6000620004ca60001984600802620004aa565b1980831691505092915050565b6000620004e58383620004b7565b9150826002028217905092915050565b62000500826200027b565b67ffffffffffffffff8111156200051c576200051b62000286565b5b620005288254620002e4565b620005358282856200045a565b600060209050601f8311600181146200056d576000841562000558578287015190505b620005648582620004d7565b865550620005d4565b601f1984166200057d8662000319565b60005b82811015620005a75784890151825560018201915060208501945060208101905062000580565b86831015620005c75784890151620005c3601f891682620004b7565b8355505b6001600288020188555050505b505050505050565b600073ffffffffffffffffffffffffffffffffffffffff82169050919050565b60006200060982620005dc565b9050919050565b6200061b81620005fc565b82525050565b600060208201905062000638600083018462000610565b92915050565b61311d806200064e6000396000f3fe6080604052600436106102045760003560e01c80635fd8c71011610118578063a22cb465116100a0578063cce29ea71161006f578063cce29ea7146106c7578063d5abeb01146106f2578063e985e9c51461071d578063ee889ed01461075a578063f2fde38b1461077157610204565b8063a22cb4651461060f578063a2b40d1914610638578063b88d4fde14610661578063c87b56dd1461068a57610204565b8063744cbd91116100e7578063744cbd911461054e5780638456cb59146105775780638c1e21da1461058e5780638da5cb5b146105b957806395d89b41146105e457610204565b80635fd8c710146104a65780636352211e146104bd57806370a08231146104fa578063715018a61461053757610204565b806323b872dd1161019b57806342966c681161016a57806342966c68146103d35780634e16fc8b146103fc57806355dd574c146104275780635c975abb1461043e5780635da5d29d1461046957610204565b806323b872dd1461036057806326092b83146103895780633f4ba83a1461039357806342842e0e146103aa57610204565b8063096b02cc116101d7578063096b02cc146102d75780630d39fc81146103005780630f017a611461032b57806318160ddd1461033557610204565b806301ffc9a71461020957806306fdde0314610246578063081812fc14610271578063095ea7b3146102ae575b600080fd5b34801561021557600080fd5b50610230600480360381019061022b91906124cc565b61079a565b60405161023d9190612514565b60405180910390f35b34801561025257600080fd5b5061025b61087c565b60405161026891906125bf565b60405180910390f35b34801561027d57600080fd5b5061029860048036038101906102939190612617565b61090e565b6040516102a59190612685565b60405180910390f35b3480156102ba57600080fd5b506102d560048036038101906102d091906126cc565b61092a565b005b3480156102e357600080fd5b506102fe60048036038101906102f9919061270c565b610940565b005b34801561030c57600080fd5b506103156109a3565b6040516103229190612748565b60405180910390f35b6103336109a9565b005b34801561034157600080fd5b5061034a610aa0565b6040516103579190612748565b60405180910390f35b34801561036c57600080fd5b5061038760048036038101906103829190612763565b610aaa565b005b610391610bac565b005b34801561039f57600080fd5b506103a8610c12565b005b3480156103b657600080fd5b506103d160048036038101906103cc9190612763565b610c24565b005b3480156103df57600080fd5b506103fa60048036038101906103f59190612617565b610c44565b005b34801561040857600080fd5b50610411610c5b565b60405161041e91906125bf565b60405180910390f35b34801561043357600080fd5b5061043c610c7b565b005b34801561044a57600080fd5b50610453610d6c565b6040516104609190612514565b60405180910390f35b34801561047557600080fd5b50610490600480360381019061048b919061270c565b610d83565b60405161049d9190612514565b60405180910390f35b3480156104b257600080fd5b506104bb610da3565b005b3480156104c957600080fd5b506104e460048036038101906104df9190612617565b610df4565b6040516104f19190612685565b60405180910390f35b34801561050657600080fd5b50610521600480360381019061051c919061270c565b610e06565b60405161052e9190612748565b60405180910390f35b34801561054357600080fd5b5061054c610ec0565b005b34801561055a57600080fd5b5061057560048036038101906105709190612617565b610ed4565b005b34801561058357600080fd5b5061058c610ef1565b005b34801561059a57600080fd5b506105a3610f03565b6040516105b0919061282d565b60405180910390f35b3480156105c557600080fd5b506105ce610f16565b6040516105db9190612685565b60405180910390f35b3480156105f057600080fd5b506105f9610f40565b60405161060691906125bf565b60405180910390f35b34801561061b57600080fd5b5061063660048036038101906106319190612874565b610fd2565b005b34801561064457600080fd5b5061065f600480360381019061065a9190612617565b610fe8565b005b34801561066d57600080fd5b50610688600480360381019061068391906129e9565b611031565b005b34801561069657600080fd5b506106b160048036038101906106ac9190612617565b61104e565b6040516106be91906125bf565b60405180910390f35b3480156106d357600080fd5b506106dc6110b7565b6040516106e99190612748565b60405180910390f35b3480156106fe57600080fd5b506107076110bd565b6040516107149190612748565b60405180910390f35b34801561072957600080fd5b50610744600480360381019061073f9190612a6c565b6110c3565b6040516107519190612514565b60405180910390f35b34801561076657600080fd5b5061076f611157565b005b34801561077d57600080fd5b506107986004803603810190610793919061270c565b61128d565b005b60007f80ac58cd000000000000000000000000000000000000000000000000000000007bffffffffffffffffffffffffffffffffffffffffffffffffffffffff1916827bffffffffffffffffffffffffffffffffffffffffffffffffffffffff1916148061086557507f5b5e139f000000000000000000000000000000000000000000000000000000007bffffffffffffffffffffffffffffffffffffffffffffffffffffffff1916827bffffffffffffffffffffffffffffffffffffffffffffffffffffffff1916145b80610875575061087482611313565b5b9050919050565b60606000805461088b90612adb565b80601f01602080910402602001604051908101604052809291908181526020018280546108b790612adb565b80156109045780601f106108d957610100808354040283529160200191610904565b820191906000526020600020905b8154815290600101906020018083116108e757829003601f168201915b5050505050905090565b60006109198261137d565b5061092382611405565b9050919050565b61093c8282610937611442565b61144a565b5050565b61094861145c565b6001600b60008373ffffffffffffffffffffffffffffffffffffffff1673ffffffffffffffffffffffffffffffffffffffff16815260200190815260200160002060006101000a81548160ff02191690831515021790555050565b60085481565b600b60003373ffffffffffffffffffffffffffffffffffffffff1673ffffffffffffffffffffffffffffffffffffffff16815260200190815260200160002060009054906101000a900460ff16610a35576040517f08c379a0000000000000000000000000000000000000000000000000000000008152600401610a2c90612b58565b60405180910390fd5b6000600b60003373ffffffffffffffffffffffffffffffffffffffff1673ffffffffffffffffffffffffffffffffffffffff16815260200190815260200160002060006101000a81548160ff021916908315150217905550610a9e34660110d9316ec0006114e3565b565b6000600754905090565b600073ffffffffffffffffffffffffffffffffffffffff168273ffffffffffffffffffffffffffffffffffffffff1603610b1c5760006040517f64a0ae92000000000000000000000000000000000000000000000000000000008152600401610b139190612685565b60405180910390fd5b6000610b308383610b2b611442565b6115e4565b90508373ffffffffffffffffffffffffffffffffffffffff168173ffffffffffffffffffffffffffffffffffffffff1614610ba6578382826040517f64283d7b000000000000000000000000000000000000000000000000000000008152600401610b9d93929190612b78565b60405180910390fd5b50505050565b6000660119f17fe16000905060016002811115610bcc57610bcb6127b6565b5b600a60009054906101000a900460ff166002811115610bee57610bed6127b6565b5b03610c0257610bfd34826114e3565b610c0f565b610c0e346008546114e3565b5b50565b610c1a61145c565b610c226115fa565b565b610c3f83838360405180602001604052806000815250611031565b505050565b610c57600082610c52611442565b6115e4565b5050565b60606040518060800160405280604481526020016130a460449139905090565b610c8361145c565b60006002811115610c9757610c966127b6565b5b600a60009054906101000a900460ff166002811115610cb957610cb86127b6565b5b14610cf9576040517f08c379a0000000000000000000000000000000000000000000000000000000008152600401610cf090612bfb565b60405180910390fd5b6001600a60006101000a81548160ff02191690836002811115610d1f57610d1e6127b6565b5b02179055507f21552c76d628c7fccda9b8518b701cf2c4b17da6949aa77dbe8e58b26d1eeca9600a60009054906101000a900460ff16604051610d62919061282d565b60405180910390a1565b6000600660009054906101000a900460ff16905090565b600b6020528060005260406000206000915054906101000a900460ff1681565b610dab61145c565b3373ffffffffffffffffffffffffffffffffffffffff166108fc479081150290604051600060405180830381858888f19350505050158015610df1573d6000803e3d6000fd5b50565b6000610dff8261137d565b9050919050565b60008073ffffffffffffffffffffffffffffffffffffffff168273ffffffffffffffffffffffffffffffffffffffff1603610e795760006040517f89c62b64000000000000000000000000000000000000000000000000000000008152600401610e709190612685565b60405180910390fd5b600360008373ffffffffffffffffffffffffffffffffffffffff1673ffffffffffffffffffffffffffffffffffffffff168152602001908152602001600020549050919050565b610ec861145c565b610ed2600061165d565b565b610edc61145c565b8042610ee89190612c4a565b60098190555050565b610ef961145c565b610f01611723565b565b600a60009054906101000a900460ff1681565b6000600660019054906101000a900473ffffffffffffffffffffffffffffffffffffffff16905090565b606060018054610f4f90612adb565b80601f0160208091040260200160405190810160405280929190818152602001828054610f7b90612adb565b8015610fc85780601f10610f9d57610100808354040283529160200191610fc8565b820191906000526020600020905b815481529060010190602001808311610fab57829003601f168201915b5050505050905090565b610fe4610fdd611442565b8383611786565b5050565b610ff061145c565b806008819055507ff347ee99503bf19c028bd6b18f3c676e82a9bb5b2bb5225aebe0fd62fd6a0d19816040516110269190612748565b60405180910390a150565b61103c848484610aaa565b611048848484846118f5565b50505050565b60606110598261137d565b506000611064611aac565b9050600081511161108457604051806020016040528060008152506110af565b8061108e84611acc565b60405160200161109f929190612cba565b6040516020818303038152906040525b915050919050565b60095481565b61270e81565b6000600560008473ffffffffffffffffffffffffffffffffffffffff1673ffffffffffffffffffffffffffffffffffffffff16815260200190815260200160002060008373ffffffffffffffffffffffffffffffffffffffff1673ffffffffffffffffffffffffffffffffffffffff16815260200190815260200160002060009054906101000a900460ff16905092915050565b61115f61145c565b60016002811115611173576111726127b6565b5b600a60009054906101000a900460ff166002811115611195576111946127b6565b5b146111d5576040517f08c379a00000000000000000000000000000000000000000000000000000000081526004016111cc90612d50565b60405180910390fd5b60095442101561121a576040517f08c379a000000000000000000000000000000000000000000000000000000000815260040161121190612dbc565b60405180910390fd5b6002600a60006101000a81548160ff021916908360028111156112405761123f6127b6565b5b02179055507f21552c76d628c7fccda9b8518b701cf2c4b17da6949aa77dbe8e58b26d1eeca9600a60009054906101000a900460ff16604051611283919061282d565b60405180910390a1565b61129561145c565b600073ffffffffffffffffffffffffffffffffffffffff168173ffffffffffffffffffffffffffffffffffffffff16036113075760006040517f1e4fbdf70000000000000000000000000000000000000000000000000000000081526004016112fe9190612685565b60405180910390fd5b6113108161165d565b50565b60007f01ffc9a7000000000000000000000000000000000000000000000000000000007bffffffffffffffffffffffffffffffffffffffffffffffffffffffff1916827bffffffffffffffffffffffffffffffffffffffffffffffffffffffff1916149050919050565b60008061138983611b9a565b9050600073ffffffffffffffffffffffffffffffffffffffff168173ffffffffffffffffffffffffffffffffffffffff16036113fc57826040517f7e2732890000000000000000000000000000000000000000000000000000000081526004016113f39190612748565b60405180910390fd5b80915050919050565b60006004600083815260200190815260200160002060009054906101000a900473ffffffffffffffffffffffffffffffffffffffff169050919050565b600033905090565b6114578383836001611bd7565b505050565b611464611442565b73ffffffffffffffffffffffffffffffffffffffff16611482610f16565b73ffffffffffffffffffffffffffffffffffffffff16146114e1576114a5611442565b6040517f118cdaa70000000000000000000000000000000000000000000000000000000081526004016114d89190612685565b60405180910390fd5b565b60075461270e11611529576040517f08c379a000000000000000000000000000000000000000000000000000000000815260040161152090612e28565b60405180910390fd5b8082101561156c576040517f08c379a000000000000000000000000000000000000000000000000000000000815260040161156390612e94565b60405180910390fd5b60001515611578610d6c565b1515146115ba576040517f08c379a00000000000000000000000000000000000000000000000000000000081526004016115b190612f00565b60405180910390fd5b6000600760008154809291906115cf90612f20565b9190505590506115df3382611d9c565b505050565b60006115f1848484611dba565b90509392505050565b611602611dd8565b6000600660006101000a81548160ff0219169083151502179055507f5db9ee0a495bf2e6ff9c91a7834c1ba4fdd244a5e8aa4e537bd38aeae4b073aa611646611442565b6040516116539190612685565b60405180910390a1565b6000600660019054906101000a900473ffffffffffffffffffffffffffffffffffffffff16905081600660016101000a81548173ffffffffffffffffffffffffffffffffffffffff021916908373ffffffffffffffffffffffffffffffffffffffff1602179055508173ffffffffffffffffffffffffffffffffffffffff168173ffffffffffffffffffffffffffffffffffffffff167f8be0079c531659141344cd1fd0a4f28419497f9722a3daafe3b4186f6b6457e060405160405180910390a35050565b61172b611e18565b6001600660006101000a81548160ff0219169083151502179055507f62e78cea01bee320cd4e420270b5ea74000d11b0c9f74754ebdbfc544b05a25861176f611442565b60405161177c9190612685565b60405180910390a1565b600073ffffffffffffffffffffffffffffffffffffffff168273ffffffffffffffffffffffffffffffffffffffff16036117f757816040517f5b08ba180000000000000000000000000000000000000000000000000000000081526004016117ee9190612685565b60405180910390fd5b80600560008573ffffffffffffffffffffffffffffffffffffffff1673ffffffffffffffffffffffffffffffffffffffff16815260200190815260200160002060008473ffffffffffffffffffffffffffffffffffffffff1673ffffffffffffffffffffffffffffffffffffffff16815260200190815260200160002060006101000a81548160ff0219169083151502179055508173ffffffffffffffffffffffffffffffffffffffff168373ffffffffffffffffffffffffffffffffffffffff167f17307eab39ab6107e8899845ad3d59bd9653f200f220920489ca2b5937696c31836040516118e89190612514565b60405180910390a3505050565b60008373ffffffffffffffffffffffffffffffffffffffff163b1115611aa6578273ffffffffffffffffffffffffffffffffffffffff1663150b7a02611939611442565b8685856040518563ffffffff1660e01b815260040161195b9493929190612fbd565b6020604051808303816000875af192505050801561199757506040513d601f19601f82011682018060405250810190611994919061301e565b60015b611a1b573d80600081146119c7576040519150601f19603f3d011682016040523d82523d6000602084013e6119cc565b606091505b506000815103611a1357836040517f64a0ae92000000000000000000000000000000000000000000000000000000008152600401611a0a9190612685565b60405180910390fd5b805181602001fd5b63150b7a0260e01b7bffffffffffffffffffffffffffffffffffffffffffffffffffffffff1916817bffffffffffffffffffffffffffffffffffffffffffffffffffffffff191614611aa457836040517f64a0ae92000000000000000000000000000000000000000000000000000000008152600401611a9b9190612685565b60405180910390fd5b505b50505050565b60606040518060800160405280604481526020016130a460449139905090565b606060006001611adb84611e59565b01905060008167ffffffffffffffff811115611afa57611af96128be565b5b6040519080825280601f01601f191660200182016040528015611b2c5781602001600182028036833780820191505090505b509050600082602001820190505b600115611b8f578080600190039150507f3031323334353637383961626364656600000000000000000000000000000000600a86061a8153600a8581611b8357611b8261304b565b5b04945060008503611b3a575b819350505050919050565b60006002600083815260200190815260200160002060009054906101000a900473ffffffffffffffffffffffffffffffffffffffff169050919050565b8080611c105750600073ffffffffffffffffffffffffffffffffffffffff168273ffffffffffffffffffffffffffffffffffffffff1614155b15611d44576000611c208461137d565b9050600073ffffffffffffffffffffffffffffffffffffffff168373ffffffffffffffffffffffffffffffffffffffff1614158015611c8b57508273ffffffffffffffffffffffffffffffffffffffff168173ffffffffffffffffffffffffffffffffffffffff1614155b8015611c9e5750611c9c81846110c3565b155b15611ce057826040517fa9fbf51f000000000000000000000000000000000000000000000000000000008152600401611cd79190612685565b60405180910390fd5b8115611d4257838573ffffffffffffffffffffffffffffffffffffffff168273ffffffffffffffffffffffffffffffffffffffff167f8c5be1e5ebec7d5bd14f71427d1e84f3dd0314c0f7b2291e5b200ac8c7c3b92560405160405180910390a45b505b836004600085815260200190815260200160002060006101000a81548173ffffffffffffffffffffffffffffffffffffffff021916908373ffffffffffffffffffffffffffffffffffffffff16021790555050505050565b611db6828260405180602001604052806000815250611fac565b5050565b6000611dc4611e18565b611dcf848484611fc8565b90509392505050565b611de0610d6c565b611e16576040517f8dfc202b00000000000000000000000000000000000000000000000000000000815260040160405180910390fd5b565b611e20610d6c565b15611e57576040517fd93c066500000000000000000000000000000000000000000000000000000000815260040160405180910390fd5b565b600080600090507a184f03e93ff9f4daa797ed6e38ed64bf6a1f0100000000000000008310611eb7577a184f03e93ff9f4daa797ed6e38ed64bf6a1f0100000000000000008381611ead57611eac61304b565b5b0492506040810190505b6d04ee2d6d415b85acef81000000008310611ef4576d04ee2d6d415b85acef81000000008381611eea57611ee961304b565b5b0492506020810190505b662386f26fc100008310611f2357662386f26fc100008381611f1957611f1861304b565b5b0492506010810190505b6305f5e1008310611f4c576305f5e1008381611f4257611f4161304b565b5b0492506008810190505b6127108310611f71576127108381611f6757611f6661304b565b5b0492506004810190505b60648310611f945760648381611f8a57611f8961304b565b5b0492506002810190505b600a8310611fa3576001810190505b80915050919050565b611fb683836121e2565b611fc360008484846118f5565b505050565b600080611fd484611b9a565b9050600073ffffffffffffffffffffffffffffffffffffffff168373ffffffffffffffffffffffffffffffffffffffff1614612016576120158184866122db565b5b600073ffffffffffffffffffffffffffffffffffffffff168173ffffffffffffffffffffffffffffffffffffffff16146120a757612058600085600080611bd7565b6001600360008373ffffffffffffffffffffffffffffffffffffffff1673ffffffffffffffffffffffffffffffffffffffff168152602001908152602001600020600082825403925050819055505b600073ffffffffffffffffffffffffffffffffffffffff168573ffffffffffffffffffffffffffffffffffffffff161461212a576001600360008773ffffffffffffffffffffffffffffffffffffffff1673ffffffffffffffffffffffffffffffffffffffff168152602001908152602001600020600082825401925050819055505b846002600086815260200190815260200160002060006101000a81548173ffffffffffffffffffffffffffffffffffffffff021916908373ffffffffffffffffffffffffffffffffffffffff160217905550838573ffffffffffffffffffffffffffffffffffffffff168273ffffffffffffffffffffffffffffffffffffffff167fddf252ad1be2c89b69c2b068fc378daa952ba7f163c4a11628f55a4df523b3ef60405160405180910390a4809150509392505050565b600073ffffffffffffffffffffffffffffffffffffffff168273ffffffffffffffffffffffffffffffffffffffff16036122545760006040517f64a0ae9200000000000000000000000000000000000000000000000000000000815260040161224b9190612685565b60405180910390fd5b6000612262838360006115e4565b9050600073ffffffffffffffffffffffffffffffffffffffff168173ffffffffffffffffffffffffffffffffffffffff16146122d65760006040517f73c6ac6e0000000000000000000000000000000000000000000000000000000081526004016122cd9190612685565b60405180910390fd5b505050565b6122e683838361239f565b61239a57600073ffffffffffffffffffffffffffffffffffffffff168373ffffffffffffffffffffffffffffffffffffffff160361235b57806040517f7e2732890000000000000000000000000000000000000000000000000000000081526004016123529190612748565b60405180910390fd5b81816040517f177e802f00000000000000000000000000000000000000000000000000000000815260040161239192919061307a565b60405180910390fd5b505050565b60008073ffffffffffffffffffffffffffffffffffffffff168373ffffffffffffffffffffffffffffffffffffffff161415801561245757508273ffffffffffffffffffffffffffffffffffffffff168473ffffffffffffffffffffffffffffffffffffffff161480612418575061241784846110c3565b5b8061245657508273ffffffffffffffffffffffffffffffffffffffff1661243e83611405565b73ffffffffffffffffffffffffffffffffffffffff16145b5b90509392505050565b6000604051905090565b600080fd5b600080fd5b60007fffffffff0000000000000000000000000000000000000000000000000000000082169050919050565b6124a981612474565b81146124b457600080fd5b50565b6000813590506124c6816124a0565b92915050565b6000602082840312156124e2576124e161246a565b5b60006124f0848285016124b7565b91505092915050565b60008115159050919050565b61250e816124f9565b82525050565b60006020820190506125296000830184612505565b92915050565b600081519050919050565b600082825260208201905092915050565b60005b8381101561256957808201518184015260208101905061254e565b60008484015250505050565b6000601f19601f8301169050919050565b60006125918261252f565b61259b818561253a565b93506125ab81856020860161254b565b6125b481612575565b840191505092915050565b600060208201905081810360008301526125d98184612586565b905092915050565b6000819050919050565b6125f4816125e1565b81146125ff57600080fd5b50565b600081359050612611816125eb565b92915050565b60006020828403121561262d5761262c61246a565b5b600061263b84828501612602565b91505092915050565b600073ffffffffffffffffffffffffffffffffffffffff82169050919050565b600061266f82612644565b9050919050565b61267f81612664565b82525050565b600060208201905061269a6000830184612676565b92915050565b6126a981612664565b81146126b457600080fd5b50565b6000813590506126c6816126a0565b92915050565b600080604083850312156126e3576126e261246a565b5b60006126f1858286016126b7565b925050602061270285828601612602565b9150509250929050565b6000602082840312156127225761272161246a565b5b6000612730848285016126b7565b91505092915050565b612742816125e1565b82525050565b600060208201905061275d6000830184612739565b92915050565b60008060006060848603121561277c5761277b61246a565b5b600061278a868287016126b7565b935050602061279b868287016126b7565b92505060406127ac86828701612602565b9150509250925092565b7f4e487b7100000000000000000000000000000000000000000000000000000000600052602160045260246000fd5b600381106127f6576127f56127b6565b5b50565b6000819050612807826127e5565b919050565b6000612817826127f9565b9050919050565b6128278161280c565b82525050565b6000602082019050612842600083018461281e565b92915050565b612851816124f9565b811461285c57600080fd5b50565b60008135905061286e81612848565b92915050565b6000806040838503121561288b5761288a61246a565b5b6000612899858286016126b7565b92505060206128aa8582860161285f565b9150509250929050565b600080fd5b600080fd5b7f4e487b7100000000000000000000000000000000000000000000000000000000600052604160045260246000fd5b6128f682612575565b810181811067ffffffffffffffff82111715612915576129146128be565b5b80604052505050565b6000612928612460565b905061293482826128ed565b919050565b600067ffffffffffffffff821115612954576129536128be565b5b61295d82612575565b9050602081019050919050565b82818337600083830152505050565b600061298c61298784612939565b61291e565b9050828152602081018484840111156129a8576129a76128b9565b5b6129b384828561296a565b509392505050565b600082601f8301126129d0576129cf6128b4565b5b81356129e0848260208601612979565b91505092915050565b60008060008060808587031215612a0357612a0261246a565b5b6000612a11878288016126b7565b9450506020612a22878288016126b7565b9350506040612a3387828801612602565b925050606085013567ffffffffffffffff811115612a5457612a5361246f565b5b612a60878288016129bb565b91505092959194509250565b60008060408385031215612a8357612a8261246a565b5b6000612a91858286016126b7565b9250506020612aa2858286016126b7565b9150509250929050565b7f4e487b7100000000000000000000000000000000000000000000000000000000600052602260045260246000fd5b60006002820490506001821680612af357607f821691505b602082108103612b0657612b05612aac565b5b50919050565b7f796f7520617265206e6f7420696e206c69737400000000000000000000000000600082015250565b6000612b4260138361253a565b9150612b4d82612b0c565b602082019050919050565b60006020820190508181036000830152612b7181612b35565b9050919050565b6000606082019050612b8d6000830186612676565b612b9a6020830185612739565b612ba76040830184612676565b949350505050565b7f7072652053616c6520656e646564000000000000000000000000000000000000600082015250565b6000612be5600e8361253a565b9150612bf082612baf565b602082019050919050565b60006020820190508181036000830152612c1481612bd8565b9050919050565b7f4e487b7100000000000000000000000000000000000000000000000000000000600052601160045260246000fd5b6000612c55826125e1565b9150612c60836125e1565b9250828201905080821115612c7857612c77612c1b565b5b92915050565b600081905092915050565b6000612c948261252f565b612c9e8185612c7e565b9350612cae81856020860161254b565b80840191505092915050565b6000612cc68285612c89565b9150612cd28284612c89565b91508190509392505050565b7f7072652073616c6520656e646564206f72206e6f74207965742073746172746560008201527f6400000000000000000000000000000000000000000000000000000000000000602082015250565b6000612d3a60218361253a565b9150612d4582612cde565b604082019050919050565b60006020820190508181036000830152612d6981612d2d565b9050919050565b7f43616e7420456e64205072652d73616c65207269676874206e6f770000000000600082015250565b6000612da6601b8361253a565b9150612db182612d70565b602082019050919050565b60006020820190508181036000830152612dd581612d99565b9050919050565b7f6d617820737570706c7920726561636865640000000000000000000000000000600082015250565b6000612e1260128361253a565b9150612e1d82612ddc565b602082019050919050565b60006020820190508181036000830152612e4181612e05565b9050919050565b7f6e6f7420656e6f7567682066756e647300000000000000000000000000000000600082015250565b6000612e7e60108361253a565b9150612e8982612e48565b602082019050919050565b60006020820190508181036000830152612ead81612e71565b9050919050565b7f6d696e74696e6720697320707268696269746564207269676874206e6f770000600082015250565b6000612eea601e8361253a565b9150612ef582612eb4565b602082019050919050565b60006020820190508181036000830152612f1981612edd565b9050919050565b6000612f2b826125e1565b91507fffffffffffffffffffffffffffffffffffffffffffffffffffffffffffffffff8203612f5d57612f5c612c1b565b5b600182019050919050565b600081519050919050565b600082825260208201905092915050565b6000612f8f82612f68565b612f998185612f73565b9350612fa981856020860161254b565b612fb281612575565b840191505092915050565b6000608082019050612fd26000830187612676565b612fdf6020830186612676565b612fec6040830185612739565b8181036060830152612ffe8184612f84565b905095945050505050565b600081519050613018816124a0565b92915050565b6000602082840312156130345761303361246a565b5b600061304284828501613009565b91505092915050565b7f4e487b7100000000000000000000000000000000000000000000000000000000600052601260045260246000fd5b600060408201905061308f6000830185612676565b61309c6020830184612739565b939250505056fe68747470733a2f2f697066732e696f2f697066732f516d504d6334746342734d714c5275435174506d506538346270536a7243334b793774334a5775485859423461532fa264697066735822122020df05d9f2aec25ad0d79c5a317368b4cbb57fe2e46c79cda5fc531501d3350464736f6c63430008140033",
  "linkReferences": {},
  "deployedLinkReferences": {}
}